:1000000018C1000046C1000044C1000042C1000008
:1000100040C100003EC100003CC100003AC10000E8
:1000200038C1000062C5000060C500005EC5000068
:1000300030C100002EC100002CC100002AC1000008
:1000400028C1000025C5000024C1000022C1000015
:1000500020C1000054C500001CC1000048C40000BD
:1000600018C10000EAC30000BFC3000012C10000B5
:1000700010C100000EC100000CC100000AC1000048
:10008000DAC4000006C1000004C1000002C1000083
:1000900000C10000FEC00000FCC00000FAC000006B
:1000A000F8C00000F6C0000099C40000F2C00000D3
:1000B000F0C00000EEC00000ECC0000062C4000010
:1000C000E8C00000E6C00000E4C00000E2C000009C
:1000D000E0C00000DEC000005EC3000033C30000CB
:1000E000D8C000008D0290027F0283028702C702FF
:1000F000940298029E02A202A602AC02B002B402CE
:10010000C702BA02BE02C202000022002500280077
:100110002B002E003100340002010000050108010F
:100120000B0105050505070508080808020202027B
:100130000A0A080804040404010101010101010183
:100140000303030303030303040707070C0C0C0C4E
:100150000C0C0C0C02020202060606060606060637
:100160000B0B0B0B0B0B0B0B0102102020080810C4
:100170002040102040800201020108040201010217
:1001800004081020408080402010080402018004F0
:10019000020180402010080402010804020101024B
:1001A0000408102040800102040810204080000054
:1001B0000A0B02090C0D0E080703040100000000E1
:1001C000000000000000000000000000000000002F
:1001D00000000000000000000000121110000000EC
:1001E000000000000000000000000000000000000F
:1001F000000000004E414E494E495459494E46CDEB
:10020000CCCC3D0AD7233C17B7D13877CC2B3295CD
:1002100095E6241FB14F0A000020410000C84200AB
:10022000401C4620BCBE4CCA1B0E5AAEC59D740075
:10023000A01011241FBECFEFD1E2DEBFCDBF00E082
:100240000CBF13E0A0E0B2E0EAE2FFE200E00BBF87
:1002500002C007900D92A836B107D9F726E0A8E6AC
:10026000B3E001C01D92AE3DB207E1F711E0C9E174
:10027000D1E000E006C021970109802FFE010E9415
:100280005911C831D10780E00807A9F713D70C949A
:100290009317B6CEFC01A089B1898C91A689B78944
:1002A00082FD0FC09C91818D8F5F8F73228D82178D
:1002B00049F0218DDF01A20FB11D5D969C93818FC6
:1002C00008958C910895FC01918D828D981761F0AD
:1002D000828DDF01A80FB11D5D968C91928D9F5F7D
:1002E0009F73928F90E008958FEF9FEF0895FC0128
:1002F000918D828D981731F0828DE80FF11D858DDB
:1003000090E008958FEF9FEF0895FC01918D228D6D
:10031000892F90E0805C9F4F821B91098F739927F2
:1003200008958BE396E0F1DF21E0892B09F420E0CA
:10033000822F089583E194E0E8DF21E0892B09F41E
:1003400020E0822F0895FC01848DDF01A80FB11DEC
:10035000A35ABF4F2C91848D90E001968F739927FB
:10036000848FA689B7892C93A089B1898C918064E8
:100370008C93938D848D981306C00288F389E02DA9
:1003800080818F7D80830895EF92FF920F931F935A
:10039000CF93DF93EC0181E0888F9B8D8C8D981338
:1003A00005C0E889F989808185FD23C0F62E0B8D73
:1003B00010E00F5F1F4F0F731127E02E8C8DE81296
:1003C0000BC00FB607FCFACFE889F989808185FF59
:1003D000F5CFCE01B8DFF2CF8B8DFE01E80FF11D16
:1003E000E35AFF4FF0820B8FEA89FB89808180629C
:1003F00007C0EE89FF896083E889F989808180647C
:10040000808381E090E0DF91CF911F910F91FF9069
:10041000EF900895CF93DF93EC01888D8823C1F08E
:10042000EA89FB89808185FD05C0A889B9898C91FD
:1004300086FD0EC00FB607FCF5CF808185FFF2CF99
:10044000A889B9898C9185FFEDCFCE017CDFE8CFFB
:10045000DF91CF91089580E090E0892B19F06ADF59
:10046000811120C080E090E0892B41F080E090E095
:10047000892B21F00E940000811117C080E090E0DC
:10048000892B41F080E090E0892B21F00E94000050
:1004900081110EC080E090E0892B79F042DF81115C
:1004A0000AC008950E940000DDCF0E940000E6CF40
:1004B0000E940000EFCF0C9400000895362F90E0CA
:1004C000FC01E255FE4F4491FC01E859FE4F249196
:1004D000FC01EE5DFE4F9491992309F46BC0442317
:1004E00009F455C050E0FA013197E231F10508F006
:1004F0004EC08827EE58FF4F8F4F0C9459118091B2
:1005000080008F7707C0809180008F7D03C080912D
:100510008000877F809380003AC084B58F7702C0C7
:1005200084B58F7D84BD33C08091B0008F7703C0C8
:100530008091B0008F7D8093B00029C080919000A1
:100540008F7707C0809190008F7D03C080919000CD
:10055000877F809390001BC08091A0008F7707C099
:100560008091A0008F7D03C08091A000877F809341
:10057000A0000DC0809120018F7707C080912001DD
:100580008F7D03C080912001877F80932001E92F18
:10059000F0E0EE0FFF1FE85FFE4FA591B4918FB71B
:1005A000F894EC91311103C020952E2301C02E2B1D
:1005B0002C938FBF0895CF92DF92EF92FF920F930B
:1005C0001F93CF93DF936C018B017A01EC01CA5F1B
:1005D000DB4F888187FF04C0FB011182108224C099
:1005E0008CE08C9D90018D9D300D11248881A90196
:1005F000480F511D87FD5A958091F80390E04817E8
:10060000590794F48881A901480F511D87FD5A9517
:10061000CA01FA01EE0FFF1F8E0F9F1FFC01E85960
:10062000FC4F808186FD19C088818F5F88838CE0B4
:100630008C9D90018D9D300D11248881A901480F5A
:10064000511D87FD5A958091F80390E0481759078E
:10065000B4F488818C303CF112C08881280F311DA0
:1006600087FD3A95F901EE0FFF1F2E0F3F1FF9018D
:10067000E859FC4F808160E08F7320DFD5CFF8010F
:1006800080819181049680349C4918F480E49CE92F
:1006900004C0F801808191810496F70191838083E1
:1006A0008FEF888344C0F801408151818881B9016E
:1006B000680F711D87FD7A95CB01FB01EE0FFF1FBF
:1006C0008E0F9F1FFC01E859FC4F81819281840F9E
:1006D000951FF701918380838881A901480F511DDF
:1006E00087FD5A95CA01FA01EE0FFF1F8E0F9F1F5B
:1006F000FC01E859FC4F808186FF19C08881280FD2
:10070000311D87FD3A95F901EE0FFF1F2E0F3F1F98
:10071000F901E859FC4F808161E08F73DF91CF913F
:100720001F910F91FF90EF90DF90CF90C7CEDF9198
:10073000CF911F910F91FF90EF90DF90CF90089590
:100740000E94F0131F920F920FB60F9211240BB656
:100750000F922F933F934F935F936F937F938F935A
:100760009F93AF93BF93EF93FF938BE396E0EBDD03
:10077000FF91EF91BF91AF919F918F917F916F9179
:100780005F914F913F912F910F900BBE0F900FBE35
:100790000F901F9018951F920F920FB60F92112471
:1007A0000BB60F922F933F934F935F936F937F936B
:1007B0008F939F93AF93BF93EF93FF938BE396E059
:1007C00069DDFF91EF91BF91AF919F918F917F91E3
:1007D0006F915F914F913F912F910F900BBE0F90B2
:1007E0000FBE0F901F9018951F920F920FB60F9289
:1007F00011240BB60F922F933F934F935F936F93F8
:100800007F938F939F93AF93BF93EF93FF9383E176
:1008100094E099DDFF91EF91BF91AF919F918F91FE
:100820007F916F915F914F913F912F910F900BBEF0
:100830000F900FBE0F901F9018951F920F920FB63A
:100840000F9211240BB60F922F933F934F935F9308
:100850006F937F938F939F93AF93BF93EF93FF9388
:1008600083E194E017DDFF91EF91BF91AF919F91EC
:100870008F917F916F915F914F913F912F910F9049
:100880000BBE0F900FBE0F901F9018953FB7F894B6
:1008900080910F0490911004A0911104B091120462
:1008A00026B5A89B05C02F3F19F00196A11DB11DCB
:1008B0003FBFBA2FA92F982F8827820F911DA11D06
:1008C000B11DBC01CD0142E0660F771F881F991F43
:1008D0004A95D1F708952FB7F89460910B04709161
:1008E0000C0480910D0490910E042FBF08951F9267
:1008F0000F920FB60F9211242F933F938F939F93D4
:10090000AF93BF9380910B0490910C04A0910D04C0
:10091000B0910E0430910A0423E0230F2D3720F408
:100920000196A11DB11D05C026E8230F0296A11D49
:10093000B11D20930A0480930B0490930C04A093A0
:100940000D04B0930E0480910F0490911004A091B7
:100950001104B09112040196A11DB11D80930F04E2
:1009600090931004A0931104B0931204BF91AF911F
:100970009F918F913F912F910F900FBE0F901F90DD
:1009800018951F920F920FB60F9211240BB60F926B
:100990002F933F934F935F936F937F938F939F9387
:1009A000AF93BF93EF93FF9348E251E064E271E0AD
:1009B00080E090E000DEFF91EF91BF91AF919F91B9
:1009C0008F917F916F915F914F913F912F910F90F8
:1009D0000BBE0F900FBE0F901F9018951F920F9295
:1009E0000FB60F9211240BB60F922F933F934F9394
:1009F0005F936F937F938F939F93AF93BF93EF9387
:100A0000FF9348EA50E064EA70E083E090E0D3DDD1
:100A1000FF91EF91BF91AF919F918F917F916F91D6
:100A20005F914F913F912F910F900BBE0F900FBE92
:100A30000F901F9018951F920F920FB60F921124CE
:100A40000BB60F922F933F934F935F936F937F93C8
:100A50008F939F93AF93BF93EF93FF9348E950E039
:100A600064E970E082E090E0A6DDFF91EF91BF9134
:100A7000AF919F918F917F916F915F914F913F9136
:100A80002F910F900BBE0F900FBE0F901F901895D7
:100A90001F920F920FB60F9211240BB60F922F9345
:100AA0003F934F935F936F937F938F939F93AF93F6
:100AB000BF93EF93FF9348E850E064E870E081E073
:100AC00090E079DDFF91EF91BF91AF919F918F9170
:100AD0007F916F915F914F913F912F910F900BBE3E
:100AE0000F900FBE0F901F9018951F920F920FB688
:100AF0000F9211240F900FBE0F901F9018951F9208
:100B00000F920FB60F9211240BB60F922F933F93B3
:100B10004F935F936F937F938F939F93AF93BF9305
:100B2000CF93DF93EF93FF93C091F903D091FA0332
:100B3000FE01E65BFF4F8081811156C0C55BDF4F30
:100B400088819981DC01ED91FC910480F581E02D93
:100B50001995892B09F448C088819981DC01ED91B0
:100B6000FC910680F781E02D19958A3049F5909126
:100B7000EC05E091EA05F091EB05E90FF11D10821B
:100B80002091EA053091EB05B5E022373B0739F4B7
:100B900048EF54E05093EB054093EA0508C022E784
:100BA00035E03093EB052093EA0528EF34E03093ED
:100BB0007105209370051092EC0591E09093ED057E
:100BC000E091EA05F091EB059091EC0521E0290F09
:100BD0002093EC05E90FF11D80838091EC058837A7
:100BE00018F087E78093EC05FF91EF91DF91CF91AB
:100BF000BF91AF919F918F917F916F915F914F9135
:100C00003F912F910F900BBE0F900FBE0F901F9032
:100C10001895CF92DF92EF92FF920F931F93CF938D
:100C2000DF936C017A018B01C0E0D0E0CE15DF05C7
:100C300089F0D8016D918D01D601ED91FC91019063
:100C4000F081E02DC6011995892B11F47E0102C0B7
:100C50002196ECCFC701DF91CF911F910F91FF90AB
:100C6000EF90DF90CF900895CF92DF92EF92FF92B6
:100C70000F931F93CF93DF93EC016A017B01E88907
:100C8000F98982E080834115514E61057105B1F00B
:100C900060E079E08DE390E0A70196010E943C17A7
:100CA00089019A01015011092109310936952795C9
:100CB00017950795980101151041A8F0E889F98961
:100CC000108260E874E88EE190E0A70196010E942E
:100CD0003C17DA01C9010197A109B109B695A79599
:100CE000979587959C01EC85FD853083EE85FF8582
:100CF0002083188EEC89FD8986E08083EA89FB8950
:100D0000808180618083EA89FB898081886080831B
:100D1000EA89FB89808180688083EA89FB898081F8
:100D20008F7D8083DF91CF911F910F91FF90EF9086
:100D3000DF90CF9008958F929F92AF92BF92CF9203
:100D4000DF92EF92FF926B017C01C5DD4B015C01EC
:100D5000C60ED71EE81EF91EBEDD681579058A0588
:100D60009B0528F0C616D706E806F906A8F7FF90F7
:100D7000EF90DF90CF90BF90AF909F908F900895AD
:100D8000E0911304F09114040190F081E02D682F9C
:100D900083E194E019946115710579F0FB010190EC
:100DA0000020E9F73197AF01461B570BDC01ED91AD
:100DB000FC910280F381E02D199480E090E0089589
:100DC0004F925F926F927F92EF92FF920F931F93D9
:100DD000CF93DF93CDB7DEB7A1970FB6F894DEBF00
:100DE0000FBECDBF7C01FA01CB0119A2223008F45D
:100DF0002AE08E010F5D1F4F422E512C612C712C69
:100E0000BF01A30192010E943C17F901CA010150E0
:100E100011096A3014F4605D01C0695CD8016C93FB
:100E2000232B242B252B61F7B801C701B4DFA19632
:100E30000FB6F894DEBF0FBECDBFDF91CF911F91EB
:100E40000F91FF90EF907F906F905F904F9008957B
:100E50000F931F93CF93DF9300D01F92CDB7DEB7D0
:100E6000AC01990F660B770B77FF19C08DE24983B0
:100E70005A836B837C8384DF8C0149815A816B8127
:100E80007C8170956095509541955F4F6F4F7F4F76
:100E90002AE083E194E094DF080F191F05C02AE0DF
:100EA00083E194E08DDF8C0169E272E083E194E0FC
:100EB00072DF800F911F0F900F900F900F90DF91B6
:100EC000CF911F910F9108954F925F926F927F92F1
:100ED0008F929F92AF92BF92CF92DF92EF92FF924A
:100EE0006B017C01B42E9B01AC010E94BF128823D0
:100EF00019F06BE573E027C026013701E89477F815
:100F00002FEF3FEF4FE75FE7C301B2010E94BF122F
:100F100081110DC02FEF3FEF4FE75FE7C301B20133
:100F20000E94141618161CF46FE573E00CC02FEF26
:100F30003FEF4FE75FE4C701B6010E94BB121816EE
:100F40008CF463E673E083E194E0FF90EF90DF9030
:100F5000CF90BF90AF909F908F907F906F905F9059
:100F60004F9019CF2FEF3FEF4FE75FECC701B6016E
:100F70000E94141687FDE5CF20E030E0A901C701EB
:100F8000B6010E94141687FF08C08DE2F9DE4C01FD
:100F9000F7FAF094F7F8F09402C0812C912CA12C70
:100FA00060E070E080E09FE3AB1441F020E030E0CF
:100FB00040E251E40E94C611A394F6CF9B01AC011C
:100FC000C701B6010E9462112B013C010E9433123D
:100FD0006B017C010E9418169B01AC01C301B20198
:100FE0000E9461112B013C012AE0B701A60183E1B7
:100FF00094E0E6DE7C01E80CF91CBB2021F08EE2D7
:10100000BFDEE80EF91EDB2CDD2029F120E030E008
:1010100040E251E4C301B2010E9479162B013C0168
:101020000E9433124B01A12CB12C2AE0B501A4017E
:1010300083E194E0C5DEE80EF91EC501B4010E940B
:1010400018169B01AC01C301B2010E9461112B0172
:101050003C01DA94D9CFC701FF90EF90DF90CF9099
:10106000BF90AF909F908F907F906F905F904F90C8
:101070000895CF93DF9328DFEC0169E272E083E10A
:1010800094E089DE8C0F9D1FDF91CF9108950F931F
:101090001F93CF93DF93EC017EDE8C0169E272E057
:1010A000CE0179DE800F911FDF91CF911F910F91BB
:1010B000089571CECF93DF93CDB7DEB72A970FB6E1
:1010C000F894DEBF0FBECDBF789484B5826084BD36
:1010D00084B5816084BD85B5826085BD85B581603C
:1010E00085BD80916E00816080936E0010928100BA
:1010F0008091810082608093810080918100816075
:101100008093810080918000816080938000809135
:10111000B10084608093B1008091B00081608093C1
:10112000B000809191008260809391008091910045
:101130008160809391008091900081608093900005
:101140008091A10082608093A1008091A1008160C4
:101150008093A1008091A00081608093A000809185
:10116000210182608093210180912101816080931F
:1011700021018091200181608093200180917A007B
:10118000846080937A0080917A00826080937A00F4
:1011900080917A00816080937A0080917A008068E3
:1011A00080937A001092C1001092F4041092F5041A
:1011B0001092F6041092F7041092B2041092B30445
:1011C0001092B4041092B50468EB7BE080E090E0EC
:1011D000B2DD83E194E09093F3048093F20440E065
:1011E00052EC61E070E040DD76DB6093B204709316
:1011F000B3048093B4049093B5046AE172E08091E3
:10120000F2049091F30455DF6AE070E080E090E032
:1012100092DD81E08093C60440E052EC61E070E032
:1012200083E194E021DD6CE272E083E194E02FDF62
:101230008091F803803388F491E0980F9093F8033D
:1012400090E0FC01EE0FFF1F8E0F9F1FFC01E8597D
:10125000FC4F88EB9BE0928381838091F80380337D
:1012600088F491E0980F9093F80390E0FC01EE0F62
:10127000FF1F8E0F9F1FFC01E859FC4F88EB9BE07E
:10128000928381838EEE95E09093FA038093F90325
:1012900040E855E260E070E08091390690913A06AE
:1012A000E3DCF4DA4B015C019AE0C92ED12CE12C8D
:1012B000F12CECDADC01CB0188199909AA09BB09E8
:1012C000883E9340A105B10558F021E0C21AD1082B
:1012D000E108F10868EE860E63E0961EA11CB11CC1
:1012E000C114D104E104F10421F76BE472E08091B0
:1012F000390690913A06CBDE6DE772E080913906AF
:1013000090913A06C4DE6EE872E0809139069091C1
:101310003A06BDDE8FEA87BD80916E0082608093C1
:101320006E0084E6D82ECC24C394D5DA672B682BC4
:10133000692B39F4D0DA623071058105910508F422
:10134000F6C0C9DA6093FF03709300048093010430
:10135000909302040091FB031091FC032091FD0384
:101360003091FE03601771078207930740F4609382
:10137000FB037093FC038093FD039093FE030091A5
:10138000FB031091FC032091FD033091FE034B0100
:101390005C01801A910AA20AB30A950184010A3FEE
:1013A00011052105310508F4C2C06093FB03709359
:1013B000FC038093FD039093FE0384EF91E0A0E093
:1013C000B0E08093BE049093BF04A093C004B09398
:1013D000C1041092C2041092C3041092C40410926B
:1013E000C5048091B6049091B704A091B804B0915F
:1013F000B9048093BA049093BB04A093BC04B09347
:10140000BD0469DA6093B6047093B7048093B8049E
:101410009093B90460DA6093B2047093B30480933C
:10142000B4049093B50457DA4B015C0167EA72E0AB
:101430008091F2049091F3043CDE2AE041E050E018
:1014400060E070E08091F2049091F304B9DC6EEA00
:1014500072E08091F2049091F3042BDE2AE0B50152
:10146000A4018091F2049091F304AADC60EB72E095
:101470008091F2049091F3041CDE8091B604909167
:10148000B704A091B804B091B904B501A401481BF8
:10149000590B6A0B7B0B2AE08091F2049091F304C4
:1014A0008FDC60EB72E08091F2049091F30401DE36
:1014B0004091B6045091B7046091B8047091B9049A
:1014C0008091BA049091BB04A091BC04B091BD047A
:1014D000481B590B6A0B7B0B2AE08091F204909118
:1014E000F3046EDC62EB72E08091F2049091F304FD
:1014F000E0DDF1D9AB01BC012AE08091F2049091CA
:10150000F3045EDC64EB72E08091F2049091F304EA
:10151000BEDD65E070E080E090E00DDCDCD960933A
:10152000B6047093B7048093B8049093B904809183
:10153000ED05882309F4E5C41092ED05E0907005EF
:10154000F09071050091F9031091FA03F7010190F1
:101550000020E9F731979F012E193F09A901445056
:101560005109F701E40FF51F80818A32E1F52E0D54
:101570003F1DF90133978081803354F08A3314F48E
:10158000805307C09FEB980F963010F4875301C02B
:1015900080E0A0E18A9FC0011124F90132972081E7
:1015A000203354F02A3314F4205307C03FEB320F9A
:1015B000363010F4275301C020E0820F911D62E005
:1015C000262F30E02417350758F4F701E20FF31FF8
:1015D0002081022E000C330B822793276F5FF0CF00
:1015E000892B09F08EC46BEB72E0C7010E940E14C8
:1015F000892B09F449C26CE270E0C7010E94F41320
:1016000001967C010E9428144B015C012CD72B0110
:101610003C0120E137E240E050E00E943C17F80135
:10162000208324E630E040E050E00E943C17D801DF
:1016300011962C93C301B20124E630E040E050E063
:101640000E943C17F801628320E030E040E85FE34D
:10165000C501B4013BD720E030E04AE754E40E94E2
:10166000791601D7D80117967C936E9316976CE282
:1016700070E0C7010E94F4135C017C01BFEFEB1A1C
:10168000FB0AFC0181818C3209F49DC042E050E0EC
:10169000B701CE0101960E94FF131B82CE01019675
:1016A0000E9448149B01AC0160E876E988E990E06B
:1016B0000E942D172B013C01B5016D5F7F4F42E069
:1016C00050E0CE0101960E94FF137501F6E0EF0E87
:1016D000F11C44E050E0B701CE0103960E94FF13D5
:1016E0001F82CE0101960E9448149B01AC01A2E327
:1016F000B0E00E947A1723E030E040E050E00E9422
:101700005E1749015A01D301C201820F931FA41F22
:10171000B51FF801808B918BA28BB38BC301B201F3
:1017200020EA36E841E050E00E945E17CA01B901A4
:101730000E941A162B013C01C501B4010E941A1621
:101740002CE933E549EC56E30E9479169B01AC0184
:10175000C301B201B7D52B013C01D80118966D9396
:101760007D938D939C931B9720E030E048EC52E4EE
:101770000DD674D64B015C01D89CB001D99C700D7C
:101780001124072E000C880B990B0E941A169B013E
:10179000AC01C301B20195D520E030E040E752E44E
:1017A000F5D52B013C01B401990C880B990B0E94D3
:1017B0001A169B01AC01C301B20184D5F801608FF8
:1017C000718F828F938F6CE270E0C7010E94F413D7
:1017D000AC019C012F5F3F4FDC0111968C918C3244
:1017E000F9F0833551F4F801808D918DA28DB38D80
:1017F000B058808F918FA28FB38FDA0111969C9190
:101800009E3419F4F80190AF0BC0933521F4D80140
:10181000D8969C9305C09C3209F073C3F80110AEB2
:101820006CE270E0C901E0D75C017C01FFEFEF1AC8
:10183000FF0ADC0111968C918C3209F499C043E0C7
:1018400050E0B701CE010196DAD71C82CE01019695
:101850000E9448149B01AC0160E876E988E990E0B9
:101860000E942D172B013C01B5016C5F7F4F42E0B8
:1018700050E0CE010196C3D77501B7E0EB0EF11C25
:1018800044E050E0B701CE010396B9D71F82CE01E4
:101890000196FED79B01AC01A2E3B0E00E947A174B
:1018A00023E030E040E050E00E945E1749015A0119
:1018B000D301C201820F931FA41FB51FF801848BAF
:1018C000958BA68BB78BC301B20120EA36E841E0C5
:1018D00050E00E945E17CA01B9010E941A162B013E
:1018E0003C01C501B4010E941A162CE933E549EC0C
:1018F00056E30E9479169B01AC01C301B201E2D408
:101900002B013C01D8011C966D937D938D939C9384
:101910001F9720E030E048EC52E438D59FD54B01CA
:101920005C01D89CB001D99C700D1124072E000CCD
:10193000880B990B0E941A169B01AC01C301B201DE
:10194000C0D420E030E040E752E420D52B013C0138
:10195000B401990C880B990B0E941A169B01AC01DB
:10196000C301B201AFD4F801648F758F868F978F52
:101970006CE270E0C70138D7AC019C012F5F3F4F8C
:10198000DC0111968C918C32F9F0873551F4F80115
:10199000848D958DA68DB78DB058848F958FA68F29
:1019A000B78FDA0111969C91973519F4F80191AF30
:1019B0000BC0953421F4D801D9969C9305C09C3274
:1019C00009F09FC2F80111AE6CE270E0C9010CD7BA
:1019D0007C01FFEFEF1AFF0ADC0111968C918C322B
:1019E00021F0C70138D7F80184AF6CE270E0C7017D
:1019F000FBD67C01FFEFEF1AFF0ADC0111968C91F8
:101A00008C3221F0C70127D7F80185AF6CE270E076
:101A1000C701EAD67C01FFEFEF1AFF0ADC0111963D
:101A20008C918C3239F0C70113D7F80164AB75ABD8
:101A300086AB97AB6CE270E0C701D6D67C01FFEFB6
:101A4000EF1AFF0ADC0111968C918C3239F0C70134
:101A5000FFD6F80164A375A386A397A36CE270E098
:101A6000C701C2D66CE270E00196BED6DC011196C9
:101A70002C912C3209F445C20196EAD6F80160A3F4
:101A800071A382A393A33DC262EC72E0C701C6D6E4
:101A9000892B09F436C26CE270E0C701A5D6019625
:101AA0007C01D6D64B015C01DED42B013C0120E148
:101AB00037E240E050E00E943C17D8012C9324E626
:101AC00030E040E050E00E943C17F8012183C30160
:101AD000B20124E630E040E050E00E943C17D8011B
:101AE00012966C9320E030E040E85FE3C501B4015A
:101AF000EDD420E030E04AE754E40E947916B3D4F4
:101B0000F801778366836CE270E0C7016DD6DC0173
:101B100011962C91213419F4F801C3AE06C0263574
:101B200009F0EFC1D801DB961C926CE270E00196DF
:101B30005BD65C017C01BFEFEB1AFB0AFC018181E3
:101B40008C3209F496C042E050E0B701CE01019614
:101B500056D61B82CE0101969BD69B01AC0160E854
:101B600076E988E990E00E942D172B013C01B50130
:101B70006D5F7F4F42E050E0CE01019640D6750187
:101B8000F6E0EF0EF11C44E050E0B701CE01039601
:101B900036D61F82CE0101967BD69B01AC01A2E313
:101BA000B0E00E947A1723E030E040E050E00E946D
:101BB0005E1749015A01D301C201820F931FA41F6E
:101BC000B51FF801808B918BA28BB38BC301B2013F
:101BD00020EA36E841E050E00E945E17CA01B901F0
:101BE0000E941A162B013C01C501B4010E941A166D
:101BF0002CE933E549EC56E30E9479169B01AC01D0
:101C0000C301B2015FD32B013C01D80118966D933B
:101C10007D938D939C931B9720E030E048EC52E439
:101C2000B5D31CD44B015C01D89CB001D99C700D7C
:101C30001124072E000C880B990BFCD79B01AC01DB
:101C4000C301B2013ED320E030E040E752E49ED32E
:101C50002B013C01B401990C880B990BEBD79B012C
:101C6000AC01C301B2012ED3F801608F718F828F56
:101C7000938F6CE270E0C701B7D5AC019C012F5F78
:101C80003F4FDC0111968C918C32F9F0833551F481
:101C9000F801808D918DA28DB38DB058808F918F7A
:101CA000A28FB38FDA0111969C919E3419F4F8013A
:101CB00090AF0BC0933521F4D801D8969C9305C002
:101CC0009C3209F01EC1F80110AE6CE270E0C9014F
:101CD0008BD55C017C01FFEFEF1AFF0ADC01119646
:101CE0008C918C3209F493C043E050E0B701CE01EF
:101CF000019685D51C82CE010196CAD59B01AC0107
:101D000060E876E988E990E00E942D172B013C01FC
:101D1000B5016C5F7F4F42E050E0CE0101966FD578
:101D20007501B7E0EB0EF11C44E050E0B701CE01C5
:101D3000039665D51F82CE010196AAD59B01AC0101
:101D4000A2E3B0E00E947A1723E030E040E050E0E8
:101D50000E945E1749015A01D301C201820F931FED
:101D6000A41FB51FF801848B958BA68BB78BC3017D
:101D7000B20120EA36E841E050E00E945E17CA0155
:101D8000B90158D72B013C01C501B40153D72CE947
:101D900033E549EC56E3ADD79B01AC01C301B20179
:101DA00091D22B013C01D8011C966D937D938D93AC
:101DB0009C931F9720E030E048EC52E4E7D24ED3EA
:101DC0004B015C01D89CB001D99C700D1124072EE9
:101DD000000C880B990B2ED79B01AC01C301B201FB
:101DE00070D220E030E040E752E4D0D22B013C0139
:101DF000B401990C880B990B1DD79B01AC01C30151
:101E0000B20160D2F801648F758F868F978F6CE274
:101E100070E0C701E9D4AC019C012F5F3F4FDC01AA
:101E200011968C918C32F9F0873551F4F801848D3C
:101E3000958DA68DB78DB058848F958FA68FB78F4F
:101E4000DA0111969C91973519F4F80191AF0BC006
:101E5000953421F4D801D9969C9305C09C3209F0A1
:101E600050C0F80111AE6CE270E0C901BDD47C0134
:101E7000FFEFEF1AFF0ADC0111968C918C3239F0DA
:101E8000C701E6D4F80160A771A782A793A76CE207
:101E900070E0C701A9D47C01FFEFEF1AFF0ADC0153
:101EA00011968C918C3239F0C701D2D4F80164A715
:101EB00075A786A797A76CE270E0C70195D4DC01EF
:101EC00011962C912C32E9F00196C2D4CCD24B0160
:101ED0005C0120E137E240E050E0CED7F8012583F5
:101EE00024E630E040E050E0C7D7D80114962C93A8
:101EF000C501B40124E630E040E050E0BDD7F80170
:101F0000638369EC72E083E194E0D3D84091EE05FD
:101F100050E060E070E02AE083E194E00E94E00697
:101F20008AE30E94C0064091EF0550E060E070E057
:101F30002AE083E194E00E94E0068AE30E94C00662
:101F40004091F00550E060E070E02AE083E194E029
:101F50000E94E0068EE20E94C0064091F405509176
:101F6000F50560E070E02AE083E194E00E94E0067D
:101F700069E272E083E194E00E94CB0661ED72E0D9
:101F800083E194E096D84091F30550E060E070E082
:101F90002AE083E194E00E94E0068FE20E94C006FE
:101FA0004091F20550E060E070E02AE083E194E0C7
:101FB0000E94E00668ED72E083E194E07AD84091F7
:101FC000F10550E060E070E02AE083E194E00E94D7
:101FD000E00669E272E083E194E00E94CB066CEDDA
:101FE00072E083E194E065D84091290650E060E01A
:101FF00070E02AE083E194E00E94E00662EE72E085
:1020000083E194E056D880912A0690E00E94280748
:1020100080912906882309F490C06DEE72E083E177
:1020200094E047D86091F6057091F7058091F80526
:102030009091F90544E00E946407809126060E9471
:10204000C00668EF72E083E194E033D86091FA054E
:102050007091FB058091FC059091FD0544E00E9484
:102060006407809127060E94C00669E272E083E15E
:1020700094E00E94CB066BEF72E083E194E019D804
:1020800060910606709107068091080690910906F6
:1020900044E00E94640768EF72E083E194E009D8AD
:1020A00060910A0670910B0680910C0690910D06C6
:1020B00044E050E00E9439086BE273E083E194E071
:1020C0000E945908609116067091170680911806B3
:1020D0009091190642E050E00E9439086BE373E0EA
:1020E00083E194E00E94590860911A0670911B06E2
:1020F00080911C0690911D0642E050E00E94390834
:1021000063E473E083E194E00E9459086091120651
:1021100070911306809114069091150642E050E0EC
:102120000E9439086EE473E083E194E00E9459084C
:1021300080912B0690E00E9428070E942B02F5C890
:10214000CF93DF93CBE3D6E01B821A8248EE53E0B5
:1021500060E070E04C835D836E837F838EE092E06D
:102160009983888325E331E03D872C8724E331E0A0
:102170003F872E8720E331E0398B288B21E331E044
:102180003B8B2A8B22E331E03D8B2C8B26E331E025
:102190003F8B2E8B198E1A8E1B8E1C8EE3E1F4E082
:1021A000138212824483558366837783918380836D
:1021B00085EC90E09587848784EC90E0978786870C
:1021C00080EC90E0918B808B81EC90E0938B828B04
:1021D00082EC90E0958B848B86EC90E0978B868BDD
:1021E000118E128E138E148EE0EBF4E0168217829D
:1021F0001086118612861386148615861686178613
:10220000108A118A128A138A148A158A8DE490E042
:10221000BAD1FC011092ED05DC01A65BBF4F1C9208
:102220001092EC0582E795E09093EB058093EA0528
:1022300088EF94E0909371058093700515AE14AE0D
:1022400015821482138212821182108212AE11AE94
:1022500010AE13AE1782168214AA15AA16AA17AAD0
:1022600010AA11AA12AA13AA14A615A616A617A692
:1022700010A611A612A613A614A215A216A217A2A2
:1022800010A211A212A213A2148615861686178612
:1022900010861186128613861196CD93DC938DE4F9
:1022A000AEEEB5E001900D928A95E1F7DF91CF9106
:1022B0000895EE0FFF1F881F8BBF0790F691E02D4A
:1022C00019945058BB27AA270ED08DC57ED530F063
:1022D00083D520F031F49F3F11F41EF473C50EF442
:1022E000E095E7FB69C5E92F8FD580F3BA17620740
:1022F00073078407950718F071F49EF5A7C50EF4CF
:10230000E0950B2EBA2FA02D0B01B90190010C0105
:10231000CA01A0011124FF27591B99F0593F50F41D
:10232000503E68F11A16F040A22F232F342F442775
:10233000585FF3CF469537952795A795F04053956D
:10234000C9F77EF41F16BA0B620B730B840BBAF03D
:102350009150A1F0FF0FBB1F661F771F881FC2F7A8
:102360000EC0BA0F621F731F841F48F487957795BC
:102370006795B795F7959E3F08F0B3CF9395880F73
:1023800008F09927EE0F9795879508950CD02BC5E7
:1023900023D540F01AD530F021F45F3F19F00CC579
:1023A000511155C50FC530D598F39923C9F355235D
:1023B000B1F3951B550BBB27AA2762177307840738
:1023C00038F09F5F5F4F220F331F441FAA1FA9F3EE
:1023D00033D00E2E3AF0E0E830D091505040E695E0
:1023E000001CCAF729D0FE2F27D0660F771F881F41
:1023F000BB1F261737074807AB07B0E809F0BB0B30
:10240000802DBF01FF2793585F4F2AF09E3F510553
:1024100068F0D2C41CC55F3FECF3983EDCF38695B0
:1024200077956795B795F7959F5FC9F7880F911DC9
:102430009695879597F90895E1E0660F771F881FB5
:10244000BB1F621773078407BA0720F0621B730B68
:10245000840BBA0BEE1F88F7E095089504D06894BA
:10246000B111F5C40895D8D488F09F5790F0B92FD2
:102470009927B751A0F0D1F0660F771F881F991FD9
:102480001AF0BA95C9F712C0B13081F0DFD4B1E0CB
:102490000895DCC4672F782F8827B85F39F0B93FDB
:1024A000CCF3869577956795B395D9F73EF49095DB
:1024B0008095709561957F4F8F4F9F4F089585D47C
:1024C00018F011F089D438F47DC4C1C4E92F9CD42C
:1024D000B0F35523C9F3E7FB621773078407950729
:1024E000A8F199F3E92FFF2788232AF03197660F87
:1024F000771F881FDAF7952F5527442332F0915024
:102500005040220F331F441FD2F7BB27E91BF50BA6
:10251000621B730B840BB109C1F222F4620F731FAB
:10252000841FB11D31972AF0660F771F881FBB1FCC
:10253000EFCF915050405AF041F0882332F0660FAF
:10254000771F881F91505040C1F7939506C086951C
:10255000779567959F5FD9F7F8CF9F3F31F09150FE
:1025600020F4879577956795B795880F911D969577
:10257000879597F9089599D308F48FEF089595D327
:10258000880B990B0895CF93DF938230910510F457
:1025900082E090E0E091DA06F091DB0620E030E0A6
:1025A000C0E0D0E0309711F14081518148175907C0
:1025B000C0F04817590761F482819381209719F080
:1025C0009B838A832BC09093DB068093DA0626C018
:1025D0002115310519F04217530718F49A01BE016D
:1025E000DF01EF010280F381E02DDCCF2115310501
:1025F00009F1281B390B2430310590F412968D9186
:102600009C9113976115710521F0FB0193838283DF
:1026100004C09093DB068093DA06FD01329644C035
:10262000FD01E20FF31F81939193225031092D9305
:102630003C933AC02091D8063091D906232B41F41F
:1026400020910202309103023093D9062093D806DC
:1026500020910002309101022115310541F42DB77E
:102660003EB74091040250910502241B350BE091C6
:10267000D806F091D906E217F307A0F42E1B3F0B02
:102680002817390778F0AC014E5F5F4F24173507E4
:1026900048F04E0F5F1F5093D9064093D8068193A0
:1026A000919302C0E0E0F0E0CF01DF91CF91089577
:1026B0000F931F93CF93DF93009709F48CC0FC0115
:1026C0003297138212820091DA061091DB0601150F
:1026D000110581F420813181820F931F2091D8064A
:1026E0003091D9062817390779F5F093D906E09388
:1026F000D80671C0D80140E050E0AE17BF0750F4D3
:1027000012962D913C911397AD012115310509F1D8
:10271000D901F3CF9D01DA01338322836081718176
:10272000860F971F8217930769F4EC01288139817E
:10273000260F371F2E5F3F4F318320838A819B8175
:1027400093838283452B29F4F093DB06E093DA062A
:1027500042C01396FC93EE931297ED014991599163
:102760009E01240F351FE217F30771F480819181D8
:10277000840F951F029611969C938E93828193816C
:1027800013969C938E931297E0E0F0E0D801129696
:102790008D919C911397009719F0F8018C01F6CF59
:1027A0008D919C9198012E5F3F4F820F931F209136
:1027B000D8063091D9062817390769F4309729F4DB
:1027C0001092DB061092DA0602C013821282109376
:1027D000D9060093D806DF91CF911F910F910895EC
:1027E00081E090E0F8949FC3FC018191861721F06D
:1027F0008823D9F7992708953197CF010895FB01D0
:10280000DC014150504048F001900D920020C9F782
:1028100001C01D9241505040E0F70895FB015191D5
:102820005523A9F0BF01DC014D9145174111E1F796
:1028300059F4CD010190002049F04D91401541110E
:10284000C9F3FB014111EFCF81E090E001970895BA
:102850006627772768C0FC0188279927E89421918B
:102860002032E9F3293010F02E30C8F32B3239F042
:102870002D3231F4689403C04ED0820F911D219106
:1028800020532A30C8F31EF4909581959F4F0895E8
:102890001F93FC0199278827BC01E89411911032FD
:1028A000E9F3193010F01E30C8F31B3249F01D3225
:1028B00041F4689405C01AD0610F711D811D911DEE
:1028C000119110531A30B8F33EF49095809570959D
:1028D00061957F4F8F4F9F4F1F910895911189C12F
:1028E000803219F089508550D0F70895592F482F1C
:1028F000372F262F660F771F881F991F660F771FA8
:10290000881F991F620F731F841F951F660F771F03
:10291000881F991F08957AE0979F902D879F802D9B
:10292000910D112408956F927F928F929F92AF9292
:10293000BF92CF92DF92EF92FF920F931F93CF93AC
:10294000DF93EC017B016115710519F0DB018D93BB
:102950009C938E010F5F1F4F7880872D90E0BEDF24
:10296000892B11F0E801F5CFBDE27B1205C00F5FA6
:102970001F4F7980C1E008C0EBE27E1204C08E01D7
:102980000E5F1F4F7980C0E06801F1E0CF1AD108D7
:1029900043E050E06CEF71E0C6012ED1892BE9F4E1
:1029A000680122E0C20ED11C45E050E067EF71E003
:1029B000C60122D1892B21F4680187E0C80ED11C01
:1029C000E114F10419F0D701CD92DC92C111F9C0E4
:1029D00060E070E080E89FE7FDC043E050E064EF16
:1029E00071E0C60109D1892B51F4E114F10409F415
:1029F000EDC00E5F1F4FF70111830083E7C0680130
:102A000060E070E0CB0100E010E0F601D0EDD70D02
:102A1000DA3050F52C2F2260622E2C2F2870C2FF46
:102A200005C0211127C00F5F1F4F24C0222311F0C2
:102A300001501109A5E0B0E09B01AC015BD24B0154
:102A40005C01880C991CAA1CBB1CC501B4016D0F4C
:102A5000711D811D911D6839A9E97A078A07A9E1CD
:102A60009A0740F0C66005C0DE3F51F4C3FD44C084
:102A7000C8606C2EBFEFCB1ADB0A7080C62DC5CFA5
:102A80002D2F2F7D2531C1F540814D3211F4C061CC
:102A900006C04B3221F0319621E030E006C032967C
:102AA000D60111964C9122E030E0A0EDA40FAA309F
:102AB00018F0E21BF30B20C040E050E04038BCE0CF
:102AC0005B075CF49A01220F331F220F331F420F62
:102AD000531F440F551F4A0F511D3196DF011197A7
:102AE0002C91A0EDA20FAA3048F3C4FF03C051956A
:102AF00041955109040F151FC1FF07C0E114F104EE
:102B000021F03197D701ED93FC9392D0C370C3307D
:102B100019F06B017C0106C06B017C01F7FAF0949F
:102B2000F7F8F09420E030E0A901C701B6017CD0AD
:102B3000882309F443C017FF06C0119501951109B8
:102B4000C3E1D2E002C0CBE2D2E05E01B8E1AB1A51
:102B5000B1084601BE2DAF2D90E2E92EF12C0E15E5
:102B60001F057CF0FE012591359145915491B401EA
:102B70008B2F9A2FBED04B01B82FA92F0E191F09EA
:102B8000EECF2497F594E794CA15DB0541F764016D
:102B9000EB2EFA2E8E2D880F8F2D881F8F3F41F040
:102BA00020E030E0A901C701B6013ED0811106C086
:102BB00082E290E09093DD068093DC06C701B601C7
:102BC00009C060E070E080E89FEF04C060E070E062
:102BD00080EC9FE7DF91CF911F910F91FF90EF90D5
:102BE000DF90CF90BF90AF909F908F907F906F902D
:102BF0000895992788270895FB01DC014150504032
:102C000088F08D9181341CF08B350CF4805E6591D9
:102C100061341CF06B350CF4605E861B611171F33E
:102C2000990B0895881BFCCF40D008F481E00895EB
:102C3000E89409C097FB3EF4909580957095619556
:102C40007F4F8F4F9F4F9923A9F0F92F96E9BB270C
:102C50009395F695879577956795B795F111F8CF88
:102C6000FAF4BB0F11F460FF1BC06F5F7F4F8F4FF3
:102C70009F4F16C0882311F096E911C0772321F0E9
:102C80009EE8872F762F05C0662371F096E8862F81
:102C900070E060E02AF09A95660F771F881FDAF7D8
:102CA000880F9695879597F90895990F0008550F05
:102CB000AA0BE0E8FEEF16161706E807F907C0F0C2
:102CC00012161306E407F50798F0621B730B840BCA
:102CD000950B39F40A2661F0232B242B252B21F4A4
:102CE00008950A2609F4A140A6958FEF811D811D44
:102CF00008950BD078C069D028F06ED018F09523D5
:102D000009F05AC05FC01124A2C07ED0A0F3959FE5
:102D1000D1F3950F50E0551F629FF001729FBB27C2
:102D2000F00DB11D639FAA27F00DB11DAA1F649F6E
:102D30006627B00DA11D661F829F2227B00DA11D21
:102D4000621F739FB00DA11D621F839FA00D611DA7
:102D5000221F749F3327A00D611D231F849F600DC8
:102D6000211D822F762F6A2F11249F5750408AF001
:102D7000E1F088234AF0EE0FFF1FBB1F661F771F8D
:102D8000881F91505040A9F79E3F510570F014C024
:102D90005EC05F3FECF3983EDCF3869577956795D0
:102DA000B795F795E7959F5FC1F7FE2B880F911DAB
:102DB0009695879597F9089597F99F6780E870E051
:102DC00060E008959FEF80EC089500240A941616A1
:102DD000170618060906089500240A941216130609
:102DE000140605060895092E0394000C11F4882397
:102DF00052F0BB0F40F4BF2B11F460FF04C06F5FB3
:102E00007F4F8F4F9F4F089557FD9058440F551F88
:102E100059F05F3F71F04795880F97FB991F61F05C
:102E20009F3F79F087950895121613061406551FD3
:102E3000F2CF4695F1DF08C0161617061806991F3F
:102E4000F1CF86957105610508940895E894BB2734
:102E500066277727CB0197F90895DB018F939F931E
:102E600049D0BF91AF91A29F800D911DA39F900D5E
:102E7000B29F900D11240895A1E21A2EAA1BBB1B2C
:102E8000FD010DC0AA1FBB1FEE1FFF1FA217B30736
:102E9000E407F50720F0A21BB30BE40BF50B661F4C
:102EA000771F881F991F1A9469F760957095809510
:102EB00090959B01AC01BD01CF010895052E97FBB4
:102EC00016F400940FD057FD05D0D6DF07FC02D0D2
:102ED00046F408C050954095309521953F4F4F4F8F
:102EE0005F4F089590958095709561957F4F8F4FB6
:102EF0009F4F089509D0A59F900DB49F900DA49F5A
:102F0000800D911D11240895A29FB001B39FC001AF
:102F1000A39F700D811D1124911DB29F700D811D05
:0A2F20001124911D0895F894FFCFCD
:102F2A000000DE0680000100000000000000C4016D
:102F3A0009068501630177010A02564D4450565F1E
:102F4A00317C315F564D4450560D0A004D4954208C
:102F5A005472616E7341742056656869636C6520AA
:102F6A00446562756767696E673A0024504D544B31
:102F7A003331342C302C312C302C312C302C302C59
:102F8A00302C302C302C302C302C302C302C302C57
:102F9A00302C302C302C302C302A32380024504D32
:102FAA00544B3232302C313030302A3146002450E2
:102FBA004D544B3330302C313030302C302C302CB7
:102FCA00302C302A314300564D4450455F003A3286
:102FDA003A007C005F564D4450450024475047470D
:102FEA004100244750524D43000A54696D653A2006
:102FFA0000446174653A20002F3230004669783AFD
:10300A002000207175616C6974793A20004C6F63F5
:10301A006174696F6E3A20002C20004C6F636174F2
:10302A00696F6E2028696E20646567726565732C06
:10303A0020776F726B73207769746820476F6F67A8
:10304A006C65204D617073293A2000537065656480
:10305A0020286B6E6F7473293A2000416E676C6585
:10306A003A2000416C7469747564653A20005361B2
:10307A0074656C6C697465733A20006E616E0069E0
:08308A006E66006F766600001F
:00000001FF
