:100000003EC100006DC100006BC1000069C100006D
:1000100067C1000065C1000063C1000061C100004C
:100020005FC100000C94E1080C94E1080C94E10815
:1000300057C1000055C1000053C1000051C100006C
:100040004FC100000C94B4084BC1000049C100002E
:1000500047C100000C94EB0843C10000B4C7000086
:100060003FC1000043C7000018C7000039C10000AD
:1000700037C1000035C1000033C1000031C10000AC
:100080000C9487082DC100002BC1000029C100007D
:1000900027C1000025C1000023C1000021C10000CC
:1000A0001FC100001DC100000C945A0819C10000B6
:1000B00017C1000015C1000013C10000CEC7000029
:1000C0000FC100000DC100000BC1000009C10000FC
:1000D00007C1000005C10000B7C600008CC60000C3
:1000E000FFC0000028062B061A061E06220662061E
:1000F0002F06330639063D06410647064B064F06D6
:100100006206550659065D06084AD73B3BCE016E8E
:1001100084BCBFFDC12F3D6C74319ABD56833DDA5E
:100120003D00C77F11BED9E4BB4C3E916BAAAABE6D
:10013000000000803F05A84CCDB2D44EB93836A996
:10014000020C50B9918688083CA6AAAA2ABE0000D3
:1001500000803F0000002200250028002B002E0018
:100160003100340002010000050108010B01050502
:100170000505070508080808020202020A0A08081D
:10018000040404040101010101010101030303034B
:1001900003030303040707070C0C0C0C0C0C0C0CDA
:1001A0000202020206060606060606060B0B0B0BEB
:1001B0000B0B0B0B01021020200808102040102010
:1001C000408002010201080402010102040810201B
:1001D0004080804020100804020180040201804019
:1001E0002010080402010804020101020408102082
:1001F0004080010204081020408000000A0B020920
:100200000C0D0E08070304010000000000000000B0
:1002100000000000000000000000000000000000DE
:10022000000000000000121110000000000000009B
:1002300000000000000000000000000000000000BE
:100240004E414E494E495459494E46CDCCCC3D0ABB
:10025000D7233C17B7D13877CC2B329595E6241F9E
:10026000B14F0A000020410000C84200401C462057
:10027000BCBE4CCA1B0E5AAEC59D74007D1611241F
:100280001FBECFEFD1E2DEBFCDBF00E00CBF14E058
:10029000A0E0B2E0EEE5FBE300E00BBF02C0079098
:1002A0000D92A230B107D9F727E0A2E0B4E001C077
:1002B0001D92AF36B207E1F711E0CFE3D1E000E0E5
:1002C00006C021970109802FFE010E945F17CE33DF
:1002D000D10780E00807A9F70E9499090C94AD1D89
:1002E0008FCECF92DF92EF92FF920F931F93CF9317
:1002F000DF936C017A018B01C0E0D0E0CE15DF0501
:1003000089F0D8016D918D01D601ED91FC9101909C
:10031000F081E02DC6011995892B11F47E0102C0F0
:100320002196ECCFC701DF91CF911F910F91FF90E4
:10033000EF90DF90CF900895CF92DF92EF92FF92EF
:100340000F931F93CF93DF93EC016A017B01E88940
:10035000F98982E080834115514E61057105B1F044
:1003600060E079E08DE390E0A70196010E94561DC0
:1003700089019A0101501109210931093695279502
:1003800017950795980101151041A8F0E889F9899A
:10039000108260E874E88EE190E0A70196010E9467
:1003A000561DDA01C9010197A109B109B695A795B2
:1003B000979587959C01EC85FD853083EE85FF85BB
:1003C0002083188EEC89FD8986E08083EA89FB8989
:1003D000808180618083EA89FB8980818860808355
:1003E000EA89FB89808180688083EA89FB89808132
:1003F0008F7D8083DF91CF911F910F91FF90EF90C0
:10040000DF90CF9008958F929F92AF92BF92CF923C
:10041000DF92EF92FF926B017C01C9D54B015C0129
:10042000C60ED71EE81EF91EC2D5681579058A05C5
:100430009B0528F0C616D706E806F906A8F7FF9030
:10044000EF90DF90CF90BF90AF909F908F900895E6
:10045000DACF0F931F93811121C0A9D50091A30476
:100460001091A4042091A5043091A604DC01CB01D5
:10047000801B910BA20BB30B82339105A105B10533
:1004800068F442E350E060E070E08A019B01081BE1
:10049000190B2A0B3B0BC901B801B5DF88D5609356
:1004A000A3047093A4048093A5049093A60481E010
:1004B0001F910F910895CF93DF93C1EAD4E084EFA9
:1004C00091E0A0E0B0E08E879F87A88BB98B1A8A55
:1004D0001B8A1C8A1D8A8E819F81A885B9858A877F
:1004E0009B87AC87BD8763D56E837F838887998719
:1004F000DF91CF910895DC01ED91FC910190F081A5
:10050000E02D19946115710579F0FB01019000202F
:10051000E9F73197AF01461B570BDC01ED91FC91D8
:100520000280F381E02D199480E090E008954F92CD
:100530005F926F927F92EF92FF920F931F93CF93F0
:10054000DF93CDB7DEB7A1970FB6F894DEBF0FBE2D
:10055000CDBF7C01FA01CB0119A2223008F42AE0B8
:100560008E010F5D1F4F422E512C612C712CBF014B
:10057000A30192010E94561DF901CA0101501109FF
:100580006A3014F4605D01C0695CD8016C93232B60
:10059000242B252B61F7B801C701B4DFA1960FB654
:1005A000F894DEBF0FBECDBFDF91CF911F910F91A9
:1005B000FF90EF907F906F905F904F900895CF9253
:1005C000DF92EF92FF92CF93DF936C01990FEE08C9
:1005D000FF08F7FE14C06DE284E094E08CDFEC01CC
:1005E00044275527BA014C195D096E097F092AE095
:1005F00084E094E09CDF7C01EC0EFD1E07C02AE045
:10060000B701A60184E094E092DF7C0163EF73E020
:1006100084E094E077DF8E0D9F1DDF91CF91FF90F6
:10062000EF90DF90CF9008954F925F926F927F92FC
:100630008F929F92AF92BF92CF92DF92EF92FF92F2
:10064000CF93DF93EC016A017B01B22E9A01AB01DB
:10065000C701B6010E94EE19882319F063ED73E01B
:1006600027C026013701E89477F82FEF3FEF4FE7D7
:100670005FE7C301B2010E94EE1981110DC02FEF97
:100680003FEF4FE75FE7C301B2010E942E1C18162F
:100690001CF467ED73E00CC02FEF3FEF4FE75FE412
:1006A000C701B6010E949819181694F46BED73E017
:1006B000CE01DF91CF91FF90EF90DF90CF90BF9070
:1006C000AF909F908F907F906F905F904F901ACFD8
:1006D0002FEF3FEF4FE75FECC701B6010E942E1CE2
:1006E00087FDE4CF20E030E0A901C701B6010E94F8
:1006F0002E1C87FF09C06DE2CE01FDDE4C01F7FA2A
:10070000F094F7F8F09402C0812C912CA12C60E0B9
:1007100070E080E09FE3AB1441F020E030E040E285
:1007200051E40E944518A394F6CF9B01AC01C70188
:10073000B6010E947C172B013C010E94B2186B018C
:100740007C010E94321C9B01AC01C301B2010E94DA
:100750007B172B013C012AE0B701A601CE01E7DEA1
:100760007C01E80CF91CBB2029F06EE2CE01C3DE4F
:10077000E80EF91EDB2CDD2021F120E030E040E224
:1007800051E4C301B2010E94931C2B013C010E9461
:10079000B2184B01A12CB12C2AE0B501A401CE0165
:1007A000C6DEE80EF91EC501B4010E94321C9B0191
:1007B000AC01C301B2010E947B172B013C01DA940A
:1007C000DACFC701DF91CF91FF90EF90DF90CF900C
:1007D000BF90AF909F908F907F906F905F904F9061
:1007E0000895CF93DF93AB01BC0122E084E094E055
:1007F0001BDFEC0163EF73E084E094E083DE8C0F99
:100800009D1FDF91CF91089522E00ECF0F931F938C
:10081000CF93DF93EC0176DE8C0163EF73E0CE01C2
:1008200071DE800F911FDF91CF911F910F9108957D
:100830006FED73E08091E3049091E404E7CF62CE22
:10084000CF939091B704992309F460C0C82F809189
:10085000E3049091E404DC01ED91FC910480F581C6
:10086000E02D1995811117C085E651C08091E304F0
:100870009091E404DC01ED91FC910680F781E02D7C
:100880001995883609F442C0A0F0813709F43EC0BA
:10089000863709F43CC08091E3049091E404DC01C4
:1008A000ED91FC910480F581E02D19958111DECF49
:1008B000DBCF883549F1833671F779D36093A30490
:1008C0007093A4048093A5049093A60466EE73E04D
:1008D0008091E3049091E404B2DF4C2F50E060E09B
:1008E00070E02AE08091E3049091E40420DE6DEE54
:1008F00073E08091E3049091E404A1DF62E370E08F
:1009000080E090E0A5DD02C01092B70483E6CF91AD
:100910000895BF92CF92DF92EF92FF920F931F93B1
:10092000CF93DF93B82E43D36B017C0101EA14E02F
:10093000C3EED4E066EF73E08881998180DF4B2DB0
:1009400050E060E070E02AE088819981F0DD6DEF91
:1009500073E08881998173DF2AE0B701A60188815D
:100960009981E5DD6FEF73E08881998168DFF80197
:1009700086819781A085B185B701A601481B590BD7
:100980006A0B7B0B2AE088819981D1DD6FEF73E0E0
:100990008881998154DFF80146815781608571858E
:1009A00082859385A485B585481B590B6A0B7B0B03
:1009B0002AE088819981DF91CF911F910F91FF905B
:1009C000EF90DF90CF90BF90B2CDFC01A089B189AC
:1009D0008C91A689B78982FD0FC09C91818D8F5F14
:1009E0008F73228D821749F0218DDF01A20FB11D77
:1009F0005D969C93818F08958C910895FC01918D53
:100A0000828D981761F0828DDF01A80FB11D5D9670
:100A10008C91928D9F5F9F73928F90E008958FEFDE
:100A20009FEF0895FC01918D828D981731F0828D92
:100A3000E80FF11D858D90E008958FEF9FEF0895E9
:100A4000FC01918D228D892F90E0805C9F4F821B4D
:100A500091098F73992708958FED95E0F1DF21E0DB
:100A6000892B09F420E0822F089584E094E0E8DFE8
:100A700021E0892B09F420E0822F0895FC01848D68
:100A8000DF01A80FB11DA35ABF4F2C91848D90E0B8
:100A900001968F739927848FA689B7892C93A08993
:100AA000B1898C9180648C93938D848D981306C04A
:100AB0000288F389E02D80818F7D80830895EF92F5
:100AC000FF920F931F93CF93DF93EC0181E0888F08
:100AD0009B8D8C8D981305C0E889F989808185FDEF
:100AE00023C0F62E0B8D10E00F5F1F4F0F731127E1
:100AF000E02E8C8DE8120BC00FB607FCFACFE88908
:100B0000F989808185FFF5CFCE01B8DFF2CF8B8DDB
:100B1000FE01E80FF11DE35AFF4FF0820B8FEA89C7
:100B2000FB898081806207C0EE89FF896083E88944
:100B3000F98980818064808381E090E0DF91CF91AA
:100B40001F910F91FF90EF900895CF93DF93EC01E9
:100B5000888D8823C1F0EA89FB89808185FD05C0E5
:100B6000A889B9898C9186FD0EC00FB607FCF5CF18
:100B7000808185FFF2CFA889B9898C9185FFEDCF5F
:100B8000CE017CDFE8CFDF91CF91089580E090E047
:100B9000892B19F06ADF811120C080E090E0892B59
:100BA00041F080E090E0892B21F00E94000081114B
:100BB00017C080E090E0892B41F080E090E0892B25
:100BC00021F00E94000081110EC080E090E0892B8E
:100BD00079F042DF81110AC008950E940000DDCF44
:100BE0000E940000E6CF0E940000EFCF0C940000AE
:100BF0000895362F90E0FC01E650FE4F4491FC0131
:100C0000EC54FE4F2491FC01E259FE4F949199233C
:100C100009F46BC0442309F455C050E0FA01319740
:100C2000E231F10508F04EC08827EE58FF4F8F4F94
:100C30000C945F17809180008F7707C080918000AF
:100C40008F7D03C080918000877F809380003AC0B1
:100C500084B58F7702C084B58F7D84BD33C0809109
:100C6000B0008F7703C08091B0008F7D8093B0007B
:100C700029C0809190008F7707C0809190008F7D70
:100C800003C080919000877F809390001BC080916B
:100C9000A0008F7707C08091A0008F7D03C0809156
:100CA000A000877F8093A0000DC0809120018F77E6
:100CB00007C0809120018F7D03C080912001877F34
:100CC00080932001E92FF0E0EE0FFF1FEC5AFE4F5A
:100CD000A591B4918FB7F894EC91311103C0209590
:100CE0002E2301C02E2B2C938FBF08953FB7F8946D
:100CF0008091690790916A07A0916B07B0916C078A
:100D000026B5A89B05C02F3F19F00196A11DB11D66
:100D10003FBFBA2FA92F982F8827820F911DA11DA1
:100D2000B11DBC01CD0142E0660F771F881F991FDE
:100D30004A95D1F70895CF93DF93DB01EA01FC01D7
:100D4000E05AF84F208127FF04C011961C921E9292
:100D50000DC040815CE0589F9001599F300D1124D7
:100D6000240F311D47FD3A9537FD208120812F5FEB
:100D700020834CE0489F9001499F300D11248081D1
:100D8000A901480F511D87FD5A9557FF1EC080814C
:100D90008C30DCF44D915C918081B901680F711D3C
:100DA00087FD7A95CB01DB01AA0FBB1F8A0F9B1F22
:100DB000DC01A053B94F11968D919C911297840F2D
:100DC000951F99838883808111C08D919C91119783
:100DD000049680349C4918F480E49CE903C08D910A
:100DE0009C910496998388838FEF8083DF91CF91C4
:100DF00008950E940A1A1F920F920FB60F921124A3
:100E00000BB60F922F933F934F935F936F937F9304
:100E10008F939F93AF93BF93EF93FF938FED95E0E5
:100E20002DDEFF91EF91BF91AF919F918F917F91B7
:100E30006F915F914F913F912F910F900BBE0F904B
:100E40000FBE0F901F9018951F920F920FB60F9222
:100E500011240BB60F922F933F934F935F936F9391
:100E60007F938F939F93AF93BF93EF93FF938FEDF8
:100E700095E0ABDDFF91EF91BF91AF919F918F9185
:100E80007F916F915F914F913F912F910F900BBE8A
:100E90000F900FBE0F901F9018951F920F920FB6D4
:100EA0000F9211240BB60F922F933F934F935F93A2
:100EB0006F937F938F939F93AF93BF93EF93FF9322
:100EC00084E094E0DBDDFF91EF91BF91AF919F91C2
:100ED0008F917F916F915F914F913F912F910F90E3
:100EE0000BBE0F900FBE0F901F9018951F920F9280
:100EF0000FB60F9211240BB60F922F933F934F937F
:100F00005F936F937F938F939F93AF93BF93EF9371
:100F1000FF9384E094E059DDFF91EF91BF91AF9191
:100F20009F918F917F916F915F914F913F912F9101
:100F30000F900BBE0F900FBE0F901F9018958F92C1
:100F40009F92AF92BF92CF92DF92EF92FF926B018E
:100F50007C01CCDE4B015C01C114D104E104F1043D
:100F6000E9F0C4DEDC01CB0188199909AA09BB09A3
:100F7000883E9340A105B10578F321E0C21AD1085B
:100F8000E108F10888EE880E83E0981EA11CB11CD0
:100F9000C114D104E104F10421F7DECFFF90EF90FA
:100FA000DF90CF90BF90AF909F908F9008952FB714
:100FB000F89460916507709166078091670790913A
:100FC00068072FBF08951F920F920FB60F9211243A
:100FD0002F933F938F939F93AF93BF938091650718
:100FE00090916607A0916707B091680730916407F8
:100FF00023E0230F2D3720F40196A11DB11D05C05C
:1010000026E8230F0296A11DB11D2093640780934B
:10101000650790936607A0936707B0936807809170
:10102000690790916A07A0916B07B0916C070196D0
:10103000A11DB11D8093690790936A07A0936B0768
:10104000B0936C07BF91AF919F918F913F912F917A
:101050000F900FBE0F901F9018951F920F920FB612
:101060000F9211240BB60F922F933F934F935F93E0
:101070006F937F938F939F93AF93BF93EF93FF9360
:1010800048E251E064E271E080E090E054DEFF91DC
:10109000EF91BF91AF919F918F917F916F915F91F0
:1010A0004F913F912F910F900BBE0F900FBE0F905D
:1010B0001F9018951F920F920FB60F9211240BB626
:1010C0000F922F933F934F935F936F937F938F93E1
:1010D0009F93AF93BF93EF93FF9348EA50E064EA86
:1010E00070E083E090E027DEFF91EF91BF91AF9138
:1010F0009F918F917F916F915F914F913F912F9130
:101100000F900BBE0F900FBE0F901F9018951F925F
:101110000F920FB60F9211240BB60F922F933F939D
:101120004F935F936F937F938F939F93AF93BF93EF
:10113000EF93FF9348E950E064E970E082E090E0CB
:10114000FADDFF91EF91BF91AF919F918F917F91C8
:101150006F915F914F913F912F910F900BBE0F9028
:101160000FBE0F901F9018951F920F920FB60F92FF
:1011700011240BB60F922F933F934F935F936F936E
:101180007F938F939F93AF93BF93EF93FF9348E821
:1011900050E064E870E081E090E0CDDDFF91EF91F8
:1011A000BF91AF919F918F917F916F915F914F917F
:1011B0003F912F910F900BBE0F900FBE0F901F907D
:1011C00018951F920F920FB60F9211240F900FBE19
:1011D0000F901F9018951F920F920FB60F92112427
:1011E0000BB60F922F933F934F935F936F937F9321
:1011F0008F939F93AF93BF93EF93FF938091C60616
:10120000811158C08091C7069091C806DC01ED910C
:10121000FC910480F581E02D1995892B09F44AC0D1
:101220008091C7069091C806DC01ED91FC91068083
:10123000F781E02D19958A3049F59091DD05E0910F
:10124000DB05F091DC05E90FF11D10822091DB0533
:101250003091DC05B5E023363B0739F449EE54E024
:101260005093DC054093DB0508C023E635E030935E
:10127000DC052093DB0529EE34E0309362052093F2
:1012800061051092DD0591E09093DE05E091DB05AC
:10129000F091DC059091DD0521E0290F2093DD051B
:1012A000E90FF11D80838091DD05883718F087E70D
:1012B0008093DD05FF91EF91BF91AF919F918F9149
:1012C0007F916F915F914F913F912F910F900BBE46
:1012D0000F900FBE0F901F9018956091900670911F
:1012E000910680919206909193060E94341C209161
:1012F000B506273509F4905820E836E948E15BE463
:101300000C944518089560918C0670918D0680911B
:101310008E0690918F060E94341C2091B4062335CE
:1013200009F4905820E836E948E15BE40C9445184C
:101330000895CF93DF93CDB7DEB76E970FB6F894CD
:10134000DEBF0FBECDBF789484B5826084BD84B506
:10135000816084BD85B5826085BD85B5816085BDB0
:1013600080916E00816080936E0010928100809168
:1013700081008260809381008091810081608093F0
:101380008100809180008160809380008091B10015
:1013900084608093B1008091B00081608093B00040
:1013A0008091910082608093910080919100816092
:1013B0008093910080919000816080939000809153
:1013C000A10082608093A1008091A1008160809340
:1013D000A1008091A00081608093A00080912101F4
:1013E000826080932101809121018160809321019D
:1013F0008091200181608093200180917A00846037
:1014000080937A0080917A00826080937A00809144
:101410007A00816080937A0080917A00806880935E
:101420007A001092C1001092E5041092E604109226
:10143000E7041092E8041092A3041092A4041092FE
:10144000A5041092A60468EB7BE080E090E000D851
:1014500084E094E09093E4048093E30440E052EC51
:1014600061E070E00E949C01A2DD6093A304709390
:10147000A4048093A5049093A6046CE172E080918B
:10148000E3049091E404DBD96AE070E080E090E04E
:101490000E94280281E08093B70440E052EC61E0B2
:1014A00070E084E094E00E949C016EE272E084E0CF
:1014B00094E0ACD980E092E09A83898381E090E067
:1014C0009C838B831E821D828AE590E098878F83A0
:1014D00040E855E260E070E08091C7069091C80650
:1014E0000E949C016AE070E080E090E028DD6CE4FE
:1014F00072E08091C7069091C80688D96EE772E0C5
:101500008091C7069091C80681D968EE73E080E0AB
:1015100090E015DD8FEA87BD80916E008260809338
:101520006E00CE0101961C01909303048093020487
:101530006FE872E084E094E082D9E0910204F091D7
:1015400003040190F081E02D40815181628173811B
:1015500084E094E059D90E945B0280E00E94290255
:10156000882389F185E0D5D96DE972E08091E304A3
:101570009091E40464D9E0910204F0910304019095
:10158000F081E02D40815181628173818091E3047B
:101590009091E40439D96DE972E08091E30490916F
:1015A000E4044DD9E0910204F09103040190F0812C
:1015B000E02D44815581668177818091E30490918B
:1015C000E40422D935D965E070E080E090E00E9423
:1015D0002802EDDC6093A7047093A8048093A9040B
:1015E0009093AA046FE972E084E094E028D9E09136
:1015F0000204F09103040190F081E02D6481758173
:1016000086819781EED860ED77E080E090E097DC0E
:101610000E945B0265E070E080E090E00E9428029A
:101620006AE070E080E090E00E94280285E6809306
:10163000B8048091B804833609F43CC0853689F536
:101640008091B3049091B404A091B504B091B60414
:101650000196A11DB11D8093B3049093B404A0938F
:10166000B504B093B6044091AF045091B0046091BA
:10167000B1047091B204452B462B472B21F4892BE2
:101680008A2B8B2B71F480E00E942902882319F0A9
:1016900084E03FD9CDD864EF71E080E090E00E9413
:1016A00003026AE070E080E090E00E94280284E09B
:1016B000C7D8BDCF7CDC6093A7047093A804809347
:1016C000A9049093AA0462EA72E084E094E0B7D897
:1016D000E0910204F09103040190F081E02D40813B
:1016E00051816281738184E094E08ED86FE972E069
:1016F00084E094E0A4D8E0910204F0910304019006
:10170000F081E02D64817581868197816AD861EBD3
:1017100072E084E094E093D8E0910204F091030435
:101720000190F081E02D408151816281738184E0DC
:1017300094E06AD86FE972E084E094E080D8E091A8
:101740000204F09103040190F081E02D6481758121
:101750008681978146D8A0910204B0910304BC878A
:10176000AB878091DE05882309F432C51092DE052F
:101770000091610510916205F80101900020E9F7E0
:1017800031979F01201B310BA90144505109F801E9
:10179000E40FF51F80818A32E1F5200F311FF90136
:1017A00033978081803354F08A3314F4805307C018
:1017B0009FEB980F963010F4875301C080E0B0E1A2
:1017C0008B9FC0011124F90132972081203354F0FE
:1017D0002A3314F4205307C03FEB320F363010F495
:1017E000275301C020E0820F911D62E0262F30E0D8
:1017F0002417350758F4F801E20FF31F2081022E59
:10180000000C330B822793276F5FF0CF892B09F0F1
:10181000DFC465EC72E0C8010E94281A892B09F424
:101820006BC26CE270E0C8010E940E1A8C010F5F5F
:101830001F4FC8010E94421A6B017C010E94B2181E
:101840004B015C0120E137E240E050E00E94561D70
:1018500020937C0624E630E040E050E00E94561DD4
:1018600020937D06C501B40124E630E040E050E05D
:101870000E94561D60937E0620E030E040E85FE362
:10188000C701B6010E94E51820E030E04AE754E4C1
:101890000E94931C0E94B218709383066093820684
:1018A0006CE270E0C8010E940E1A7C018C010F5F8F
:1018B0001F4FFC0181818C3209F4A5C042E050E049
:1018C000B801C1010E94191A1B82C1010E94621A4B
:1018D0009B01AC0160E876E988E990E00E94471D31
:1018E0004B015C01B7016D5F7F4F42E050E0C101E9
:1018F0000E94191A0B5F1F4F44E050E0B801CE015F
:1019000003960E94191A1F82C1010E94621A9B014C
:10191000AC01A2E3B0E00E94941D23E030E040E07F
:1019200050E00E94781D69017A01D501C401820F3F
:10193000931FA41FB51F80938C0690938D06A093D0
:101940008E06B0938F06C501B40120EA36E841E067
:1019500050E00E94781DCA01B9010E94341C4B015D
:101960005C01C701B6010E94341C2CE933E549EC47
:1019700056E30E94931C9B01AC01C501B4010E9477
:101980007C174B015C0160938406709385068093FD
:1019900086069093870620E030E048EC52E40E94EF
:1019A00045180E94AD186B017C01F4E6FC9DB00166
:1019B000FD9D700D1124072E000C880B990B0E94C1
:1019C000341C9B01AC01C501B4010E947B1720E0CF
:1019D00030E040E752E40E9445184B015C01B6013B
:1019E000DD0C880B990B0E94341C9B01AC01C501D6
:1019F000B4010E947C1760939406709395068093BF
:101A00009606909397066CE270E0C8010E940E1A49
:101A1000FC019C012F5F3F4F81818C3201F18335A6
:101A200089F48091940690919506A0919606B091C4
:101A30009706B0588093940690939506A0939606C7
:101A4000B093970691819E3411F0933519F49093D9
:101A5000B40605C09C3209F0BBC31092B4066CE218
:101A600070E0C9010E940E1A7C018C010F5F1F4FAC
:101A7000DC0111968C918C3209F4A5C043E050E052
:101A8000B801C1010E94191A1C82C1010E94621A88
:101A90009B01AC0160E876E988E990E00E94471D6F
:101AA0004B015C01B7016C5F7F4F42E050E0C10128
:101AB0000E94191A0A5F1F4F44E050E0B801CE019E
:101AC00003960E94191A1F82C1010E94621A9B018B
:101AD000AC01A2E3B0E00E94941D23E030E040E0BE
:101AE00050E00E94781D69017A01D501C401820F7E
:101AF000931FA41FB51F8093900690939106A09307
:101B00009206B0939306C501B40120EA36E841E09D
:101B100050E00E94781DCA01B9010E94341C4B019B
:101B20005C01C701B6010E94341C2CE933E549EC85
:101B300056E30E94931C9B01AC01C501B4010E94B5
:101B40007C174B015C016093880670938906809333
:101B50008A0690938B0620E030E048EC52E40E9425
:101B600045180E94AD186B017C01B4E6BC9DB00124
:101B7000BD9D700D1124072E000C880B990B0E943F
:101B8000341C9B01AC01C501B4010E947B1720E00D
:101B900030E040E752E40E9445184B015C01B60179
:101BA000DD0C880B990B0E94341C9B01AC01C50114
:101BB000B4010E947C1760939806709399068093F5
:101BC0009A0690939B066CE270E0C8010E940E1A80
:101BD000FC019C012F5F3F4F81818C3201F18735E1
:101BE00089F48091980690919906A0919A06B091F7
:101BF0009B06B0588093980690939906A0939A06F6
:101C0000B0939B069181973511F0953419F4909318
:101C1000B50605C09C3209F0DBC21092B5066CE235
:101C200070E0C9010E940E1A8C010F5F1F4FFC016A
:101C300081818C3229F0C8010E94451A8093B80630
:101C40006CE270E0C8010E940E1A8C010F5F1F4FFA
:101C5000DC0111968C918C3229F0C8010E94451A42
:101C60008093B9066CE270E0C8010E940E1A8C01E4
:101C70000F5F1F4FFC0181818C3259F0C8010E9417
:101C8000421A6093B0067093B1068093B2069093A7
:101C9000B3066CE270E0C8010E940E1A8C010F5F5F
:101CA0001F4FDC0111968C918C3259F0C8010E94B3
:101CB000421A6093A0067093A1068093A2069093A7
:101CC000A3066CE270E0C8010E940E1A6CE270E09C
:101CD00001960E940E1AFC0121812C3209F478C26F
:101CE00001960E94421A60939C0670939D06809311
:101CF0009E0690939F066CC26CEC72E0C8010E9435
:101D0000281A892B09F464C26CE270E0C8010E94B1
:101D10000E1A8C010F5F1F4FC8010E94421A6B01FF
:101D20007C010E94B2184B015C0120E137E240E0E7
:101D300050E00E94561D20937C0624E630E040E0EF
:101D400050E00E94561D20937D06C501B40124E693
:101D500030E040E050E00E94561D60937E0620E097
:101D600030E040E85FE3C701B6010E94E51820E0DB
:101D700030E04AE754E40E94931C0E94B21870932A
:101D80008306609382066CE270E0C8010E940E1A1E
:101D9000DC0111962C91213421F4B1E0B093B70607
:101DA00005C0263509F014C21092B7066CE270E047
:101DB00001960E940E1A7C018C010F5F1F4FFC01DF
:101DC00081818C3209F4A4C042E050E0B801C10125
:101DD0000E94191A1B82C1010E94621A9B01AC0168
:101DE00060E876E988E990E00E94471D4B015C01BC
:101DF000B7016D5F7F4F42E050E0C1010E94191AA8
:101E00000B5F1F4F44E050E0B801CE0103960E94E3
:101E1000191A1F82C1010E94621A9B01AC01A2E340
:101E2000B0E00E94941D23E030E040E050E00E94CA
:101E3000781D69017A01D501C401820F931FA41F87
:101E4000B51F80938C0690938D06A0938E06B09359
:101E50008F06C501B40120EA36E841E050E00E9457
:101E6000781DCA01B9010E94341C4B015C01C701F5
:101E7000B6010E94341C2CE933E549EC56E30E947C
:101E8000931C9B01AC01C501B4010E947C174B015E
:101E90005C01609384067093850680938606909318
:101EA000870620E030E048EC52E40E9445180E948A
:101EB000AD186B017C01F4E6FC9DB001FD9D700D39
:101EC0001124072E000C880B990B0E94341C9B01D7
:101ED000AC01C501B4010E947B1720E030E040E76F
:101EE00052E40E9445184B015C01B601DD0C880BE1
:101EF000990B0E94341C9B01AC01C501B401FCD7B5
:101F00006093940670939506809396069093970637
:101F10006CE270E0C8010E940E1AFC019C012F5F68
:101F20003F4F81818C3201F1833589F48091940691
:101F300090919506A0919606B0919706B05880931F
:101F4000940690939506A0939606B0939706918178
:101F50009E3411F0933519F49093B40605C09C3269
:101F600009F036C11092B4066CE270E0C9010E941B
:101F70000E1A7C018C010F5F1F4FDC0111968C91B2
:101F80008C3209F4A1C043E050E0B801C1010E94C5
:101F9000191A1C82C1010E94621A9B01AC0160E8FF
:101FA00076E988E990E00E94471D4B015C01B7018A
:101FB0006C5F7F4F42E050E0C1010E94191A0A5F36
:101FC0001F4F44E050E0B801CE0103960E94191A59
:101FD0001F82C1010E94621A9B01AC01A2E3B0E022
:101FE0000E94941D23E030E040E050E00E94781D04
:101FF00069017A01D501C401820F931FA41FB51F87
:102000008093900690939106A0939206B0939306C6
:10201000C501B40120EA36E841E050E00E94781D95
:10202000CA01B9010E94341C4B015C01C701B60111
:102030000E94341C2CE933E549EC56E30E94931CC2
:102040009B01AC01C501B40157D74B015C01609302
:1020500088067093890680938A0690938B0620E009
:1020600030E048EC52E40E9445180E94AD186B0124
:102070007C01B4E6BC9DB001BD9D700D1124072EFE
:10208000000C880B990B0E94341C9B01AC01C5010C
:10209000B40131D720E030E040E752E4F6D74B01FD
:1020A0005C01B601DD0C880B990B0E94341C9B016E
:1020B000AC01C501B40120D76093980670939906CE
:1020C00080939A0690939B066CE270E0C8010E9490
:1020D0000E1AFC019C012F5F3F4F81818C3201F170
:1020E000873589F48091980690919906A0919A0677
:1020F000B0919B06B0588093980690939906A09350
:102100009A06B0939B069181973511F0953419F496
:102110009093B50605C09C3209F05AC01092B506DE
:102120006CE270E0C9010E940E1A8C010F5F1F4F14
:10213000FC0181818C3259F0C8010E94421A6093DF
:10214000A4067093A5068093A6069093A7066CE25A
:1021500070E0C8010E940E1A8C010F5F1F4FDC0156
:1021600011968C918C3259F0C8010E94421A6093EA
:10217000A8067093A9068093AA069093AB066CE21A
:1021800070E0C8010E940E1AFC0121812C3201F17D
:1021900001960E94421AE6D76B017C0120E137E2EA
:1021A00040E050E00E94561D2093810624E630E076
:1021B00040E050E00E94561D20938006C701B60102
:1021C00024E630E040E050E00E94561D60937F0618
:1021D0008091B706882309F4E1C0AB85BC851496CD
:1021E0000D90BC91A02DB88BAF87CD0123E0880F57
:1021F000991F2A95E1F7EB85FC8500811181080F75
:10220000191F6BD86B8B7C8B8D8B9E8B7CD82BEDA9
:102210003FE049E450E40E94931C20E030E044E3B6
:1022200053E433D72B013C012BED3FE049E450E46C
:10223000D8016D917D918D919C910E94931C20E01D
:1022400030E044E353E421D74B015C01A301920148
:1022500052D620E030E040E05FE30E94931C0E94F1
:10226000A3196B017C01C301B2010CD72B013C0106
:10227000C501B40107D76F8B788F898F9A8F2BEDAB
:102280003FE049E450E4F8016481758186819781DB
:102290000E94931C20E030E044E353E4F6D64B0167
:1022A0005C012BED3FE049E450E46B897C898D892A
:1022B0009E890E94931C20E030E044E353E4E5D67D
:1022C0009B01AC01C501B40116D620E030E040E02E
:1022D0005FE30E94931C0E94A3194B015C01A701BC
:1022E0009601C701B6010E94931C6B017C012F89E6
:1022F000388D498D5A8DC301B2010E94931C2B0168
:102300003C01A5019401C501B4010E94931C9B01ED
:10231000AC01C301B2010E94931C9B01AC01C70137
:10232000B601EAD56B017C019B01AC0160E070E075
:1023300080E89FE3E0D50E94AD199B01AC01C70185
:10234000B6012B8F3C8F4D8F5E8F0E94AD192B8D68
:102350003C8D4D8D5E8D43D69B01AC01CDD520E0EB
:1023600038E147EC55E40E94931C20E030E040EA5D
:1023700050E40E942E1C87FF11C02F8538892F5FE3
:102380003F4FAB85BC8512968D919C911397281772
:10239000390724F415963C932E9314970E945B0200
:1023A00080E00E9429028823B9F186E00E94890416
:1023B0006DE972E08091E3049091E4040E941F04AF
:1023C000E0910204F09103040190F081E02D40813E
:1023D0005181628173818091E3049091E4040E94B1
:1023E00004046DE972E08091E3049091E4040E949A
:1023F0001F04E0910204F09103040190F081E02DAC
:1024000044815581668177818091E3049091E40451
:102410000E9404040E94180465E070E080E090E0EF
:102420000E9428020E94D7076093A7047093A80413
:102430008093A9049093AA0463ED72E084E094E091
:102440000E941F04E0910204F09103040190F081C6
:10245000E02D408151816281738184E094E00E948B
:1024600004046FE972E084E094E00E941F04E091AC
:102470000204F09103040190F081E02D64817581E4
:10248000868197810E94F103C090C906D090CA0648
:10249000E090CB06F090CC060E94D7076C157D0526
:1024A0008E059F0550F40E94D7076093C90670936C
:1024B000CA068093CB069093CC060E94D707009162
:1024C000C9061091CA062091CB063091CC06DC01DA
:1024D000CB01801B910BA20BB30B813D9740A10553
:1024E000B10508F4CEC267EE72E084E094E00E9489
:1024F0001F04E0910204F09103040190F081E02DAB
:10250000408151816281738184E094E00E940404DF
:102510006FE972E084E094E00E941F04E0910204FD
:10252000F09103040190F081E02D64817581868132
:1025300097810E94F1030E94D7076093C9067093A8
:10254000CA068093CB069093CC06009102041091AA
:10255000030465EF72E084E094E00E941F04D80158
:10256000ED91FC91408151816281738184E094E01E
:102570000E9404046FE972E084E094E00E941F046A
:10258000D801ED91FC9164817581868197810E94CB
:10259000F10362E073E084E094E00E9406046AE1E3
:1025A00073E084E094E00E941F0440917C0650E0B8
:1025B00060E070E02AE084E094E00E9497026AE321
:1025C00084E094E00E947B0240917D0650E060E050
:1025D00070E02AE084E094E00E9497026AE384E0DD
:1025E00094E00E947B0240917E0650E060E070E043
:1025F0002AE084E094E00E9497026EE284E094E096
:102600000E947B02409182065091830660E070E058
:102610002AE084E094E00E94970263EF73E084E094
:1026200094E00E94820261E273E084E094E00E9400
:102630001F044091810650E060E070E02AE084E0F1
:1026400094E00E9497026FE284E094E00E947B0293
:102650004091800650E060E070E02AE084E094E081
:102660000E94970268E273E084E094E00E941F04F5
:1026700040917F0650E060E070E02AE084E094E062
:102680000E94970263EF73E084E094E00E9482026C
:102690006CE273E084E094E00E941F044091B7066E
:1026A00050E060E070E02AE084E094E00E9497024D
:1026B00062E373E084E094E00E941F048091B80616
:1026C00090E00E94DF028091B706882309F469C078
:1026D0006DE373E084E094E00E941F040E9483098C
:1026E000AB01BC0184E094E00E9404046091B40654
:1026F00084E094E00E947B026FE972E084E094E061
:102700000E941F040E946D09AB01BC0184E094E0AB
:102710000E9404046091B50684E094E00E947B026C
:1027200063EF73E084E094E00E94820268E473E067
:1027300084E094E00E941F046091A4067091A506B5
:102740008091A6069091A7060E94F10368E573E0C8
:1027500084E094E00E941F046091A8067091A9068D
:102760008091AA069091AB060E94F10360E673E0A7
:1027700084E094E00E941F046091A0067091A1067D
:102780008091A2069091A3060E94F1036BE673E08C
:1027900084E094E00E941F048091B90690E00E94BA
:1027A000DF0268E773E084E094E00E941F04F80110
:1027B000848195810E94DF0263E873E084E094E005
:1027C0000E941F04D801ED91FC91408151816281EA
:1027D000738184E094E00E9404046FE972E084E075
:1027E00094E00E941F04D801ED91FC9164817581F1
:1027F000868197810E94F10360E973E084E094E0B0
:102800000E941F04E0910204F09103040190F08102
:10281000E02D408151816281738184E094E00E94C7
:1028200004046FE972E084E094E00E941F04E091E8
:102830000204F09103040190F081E02D6481758120
:10284000868197810E94F103009102041091030494
:102850008091B706811104C0F801F6801781DFC0AE
:10286000D801ED91FC9184819581A681B7818B87F8
:102870009C87AD87BE87C080D180E280F3800E94B4
:102880006D092B013C010E9483094B015C016EE93B
:1028900073E084E094E00E941F04D801ED91FC9164
:1028A000408151816281738184E094E00E9404043C
:1028B0006FE972E084E094E00E941F04D801ED917A
:1028C000FC9164817581868197810E94F1032BEDD3
:1028D0003FE049E450E4C501B4010E94931C20E0AC
:1028E00030E044E353E4D1D36F87788B898B9A8BA4
:1028F0002BED3FE049E450E4C701B6010E94931C70
:1029000020E030E044E353E4C0D34B015C012BED05
:102910003FE049E450E46B857C858D859E850E946F
:10292000931C20E030E044E353E4AFD36B017C011F
:102930002BED3FE049E450E4C301B201F4D720E0BD
:1029400030E044E353E4A1D39B01AC01C701B601DD
:10295000D2D26B017C01F7D46B8B7C8B8D8B9E8BE1
:10296000C501B4018FD36B877C878D879E876F8568
:10297000788989899A8986D32B013C01C501B401E4
:10298000E2D49B01AC016F85788989899A892B8F64
:102990003C8F4D8F5E8FD7D44B015C01C701B601D0
:1029A00071D36B017C012B8D3C8D4D8D5E8DC301F0
:1029B000B201B9D72B013C012B853C854D855E8545
:1029C000C501B401B0D7A7019601ADD79B01AC01F9
:1029D000C301B20190D26B017C012B853C854D85F2
:1029E0005E856B897C898D899E899DD7A70196011B
:1029F000F6D220E030E044E353E495D72BED3FE0FE
:102A000049E450E442D3A9D3CB0188599E4F68E6EC
:102A100071E042D2F80186839783F82E192F6DEA70
:102A200073E084E094E00E9406048F2D912F0E94B1
:102A3000DF0267EB73E084E094E00E941F04E09102
:102A40000204F09103040190F081E02D4081518156
:102A50006281738184E094E00E9404046FE972E073
:102A600084E094E00E941F04E0910204F0910304CA
:102A70000190F081E02D64817581868197810E94AB
:102A8000F10365EC73E084E094E00E941F04E091A0
:102A90000204F09103040190F081E02D4081518106
:102AA0006281738184E094E00E9404040E945B02CE
:102AB00080E00E9429028823B9F181E00E94890404
:102AC0006DE972E08091E3049091E4040E941F0498
:102AD000E0910204F09103040190F081E02D408127
:102AE0005181628173818091E3049091E4040E949A
:102AF00004046DE972E08091E3049091E4040E9483
:102B00001F04E0910204F09103040190F081E02D94
:102B100044815581668177818091E3049091E4043A
:102B20000E9404040E94180465E070E080E090E0D8
:102B30000E9428020E94D7076093A7047093A804FC
:102B40008093A9049093AA046FE972E084E094E072
:102B50000E941F04E0910204F09103040190F081AF
:102B6000E02D64817581868197810E94F1030E9426
:102B70005B0265E070E080E090E00E9428026AE07D
:102B800070E080E090E00E942802F5E6F093B8043F
:102B90008091B804833609F441C0853699F5809157
:102BA000B3049091B404A091B504B091B604019619
:102BB000A11DB11D8093B3049093B404A093B504F8
:102BC000B093B6044091AF045091B0046091B10449
:102BD0007091B204452B462B472B21F4892B8A2B6D
:102BE0008B2B81F480E00E942902882329F082E067
:102BF0000E9489040E94180464EF71E080E090E074
:102C00000E9403026AE070E080E090E00E942802E7
:102C100082E00E9420048093B804BACF0E94D707B4
:102C20006093A7047093A8048093A9049093AA04C6
:102C30000E945B0265E070E080E090E00E94280264
:102C40006AE070E080E090E00E94280225E6209390
:102C5000B8048091B804833609F441C0853699F5EB
:102C60008091B3049091B404A091B504B091B604DE
:102C70000196A11DB11D8093B3049093B404A09359
:102C8000B504B093B6044091AF045091B004609184
:102C9000B1047091B204452B462B472B21F4892BAC
:102CA0008A2B8B2B81F480E00E942902882329F053
:102CB00083E00E9489040E94180464EF71E080E0C0
:102CC00090E00E9403026AE070E080E090E00E94E1
:102CD000280283E00E9420048093B804BACF0E94A7
:102CE000D7076093A7047093A8048093A9049093D6
:102CF000AA040E94C6050C94870BAFEDB5E01396AD
:102D00001C921E92129748EE53E060E070E0149619
:102D10004D935D936D937C93179780E192E01196AC
:102D20009C938E9325E331E01D963C932E931C9744
:102D300024E331E01F963C932E931E9720E331E06D
:102D400051963C932E93509721E331E053963C9358
:102D50002E93529722E331E055963C932E9354974D
:102D600026E331E057963C932E93569759961C9242
:102D700059975A961C925A975B961C925B975C9651
:102D80001C925C97E4E0F4E0138212824483558342
:102D9000668377839183808385EC90E09587848731
:102DA00084EC90E09787868780EC90E0918B808B15
:102DB00081EC90E0938B828B82EC90E0958B848BFE
:102DC00086EC90E0978B868B118E128E138E148E6C
:102DD000E1EAF4E0168217821086118612861386C5
:102DE0001486158616861786108A118A128A138A07
:102DF000148A158A1092DE05ECE7F6E01092C606FA
:102E00001092DD0583E695E09093DC058093DB0569
:102E100089EE94E090936205809361051092B90663
:102E200014AE15821482138212821182108212AEA5
:102E300011AE10AE13AE1782168214AA15AA16AAE6
:102E400017AA10AA11AA12AA13AA14A615A616A6A2
:102E500017A610A611A612A613A614A215A216A2B2
:102E600017A210A211A212A213A21486158616860A
:102E700017861086118612861386B093C806A09313
:102E8000C7060E94D7076093C9067093CA0680934D
:102E9000CB069093CC06089597FB072E16F400946A
:102EA00006D077FD08D013D007FC05D03EF49095EE
:102EB00081959F4F0895709561957F4F0895EE0F0E
:102EC000FF1F881F8BBF0790F691E02D1994AA1B56
:102ED000BB1B51E107C0AA1FBB1FA617B70710F005
:102EE000A61BB70B881F991F5A95A9F78095909537
:102EF000BC01CD0108955058BB27AA270ED08DC51F
:102F00007ED530F083D520F031F49F3F11F41EF4CC
:102F100073C50EF4E095E7FB69C5E92F8FD580F303
:102F2000BA17620773078407950718F071F49EF5C6
:102F3000A7C50EF4E0950B2EBA2FA02D0B01B901F9
:102F400090010C01CA01A0011124FF27591B99F01F
:102F5000593F50F4503E68F11A16F040A22F232F2B
:102F6000342F4427585FF3CF469537952795A7957B
:102F7000F0405395C9F77EF41F16BA0B620B730B22
:102F8000840BBAF09150A1F0FF0FBB1F661F771F93
:102F9000881FC2F70EC0BA0F621F731F841F48F448
:102FA000879577956795B795F7959E3F08F0B3CFCE
:102FB0009395880F08F09927EE0F979587950895B8
:102FC0001ED558F080E891E009F49EEF1FD528F057
:102FD00040E851E059F45EEF09C00EC551C5E92F34
:102FE000E0782CD568F3092E052AC1F32617370798
:102FF0004807590738F00E2E07F8E02569F0E0255C
:10300000E0640AC0EF6307F8009407FADB01B90136
:103010009D01DC01CA01AD01EF9346D0FED40AD078
:103020005F91552331F02BED3FE049E450FD49EC31
:1030300063CF0895DF93DD27B92FBF7740E85FE3C3
:103040001616170648075B0710F4D92F75D19F9302
:103050008F937F936F93BFD1E8E0F1E00BD1DDD484
:103060002F913F914F915F916AD4DD2349F09058A1
:10307000A2EA2AED3FE049EC5FE3D0785D274DDF1F
:10308000DF91CBC41DD1E39542C10CD0C6C4BED4E0
:1030900040F0B5D430F021F45F3F19F0A7C45111CE
:1030A000F0C4AAC4CBD498F39923C9F35523B1F340
:1030B000951B550BBB27AA2762177307840738F0A7
:1030C0009F5F5F4F220F331F441FAA1FA9F333D006
:1030D0000E2E3AF0E0E830D091505040E695001CBA
:1030E000CAF729D0FE2F27D0660F771F881FBB1F76
:1030F000261737074807AB07B0E809F0BB0B802D50
:10310000BF01FF2793585F4F2AF09E3F510568F09B
:103110006DC4B7C45F3FECF3983EDCF386957795BA
:103120006795B795F7959F5FC9F7880F911D96959D
:10313000879597F90895E1E0660F771F881FBB1FF9
:10314000621773078407BA0720F0621B730B840BA6
:10315000BA0BEE1F88F7E095089504D06894B1117A
:1031600090C4089573D488F09F5790F0B92F992791
:10317000B751A0F0D1F0660F771F881F991F1AF082
:10318000BA95C9F712C0B13081F07AD4B1E0089590
:1031900077C4672F782F8827B85F39F0B93FCCF311
:1031A000869577956795B395D9F73EF49095809578
:1031B000709561957F4F8F4F9F4F089520D418F0E1
:1031C00011F024D438F418C45CC4E92F37D4B0F318
:1031D0005523C9F3E7FB6217730784079507A8F126
:1031E00099F3E92FFF2788232AF03197660F771F7D
:1031F000881FDAF7952F5527442332F0915050401D
:10320000220F331F441FD2F7BB27E91BF50B621BAC
:10321000730B840BB109C1F222F4620F731F841F78
:10322000B11D31972AF0660F771F881FBB1FEFCFA4
:10323000915050405AF041F0882332F0660F771FCA
:10324000881F91505040C1F7939506C08695779599
:1032500067959F5FD9F7F8CF9F3F31F0915020F4E9
:10326000879577956795B795880F911D9695879562
:1032700097F90895DF93CF931F930F93FF92EF92E7
:10328000DF927B018C01689405C0DA2EEF0157D3E1
:10329000FE01E894A5912591359145915591AEF3A4
:1032A000EF013BDEFE019701A801DA9479F7DF9088
:1032B000EF90FF900F911F91CF91DF9108959CC3E4
:1032C000C5D3E8F3E894E0E0BB279F57F0F02AED80
:1032D0003FE049EC06C0EE0FBB0F661F771F881F4B
:1032E00028F0B23A62077307840728F0B25A620BDB
:1032F000730B840BE3959A9572F7803830F49A95A6
:10330000BB0F661F771F881FD2F79048A7CFEF9398
:10331000E0FF06C0A2EA2AED3FE049EC5FEBFDDDED
:103320007CD30F90039401FC9058E5E3F1E061C079
:10333000D6D208F48FEF08959B01AC0160E070E0F5
:1033400080E89FE3A2CE9F93BBDF0F9007FCEE5F68
:10335000DECF11F40EF450C37FCF78D3D0F399238E
:10336000D9F3CEF39F57550B87FF3CD00024A0E63E
:1033700040EA900180585695979528F4805C660F36
:10338000771F881F20F026173707480730F4621B85
:10339000730B840B202931294A2BA6951794079487
:1033A000202531254A2758F7660F771F881F20F000
:1033B00026173707480730F4620B730B840B200D78
:1033C000311D411DA09581F7B901842F9158880FB7
:1033D0009695879508959B01AC01A5C280D2880B74
:1033E000990B089591505040660F771F881FD2F7B0
:1033F00008959F938F937F936F93FF93EF939B0118
:10340000AC0191D2EF91FF9135DF2F913F914F9118
:103410005F9189C281E090E0F8949FC3FC018191A3
:10342000861721F08823D9F7992708953197CF017E
:103430000895FB01DC014150504048F001900D928D
:103440000020C9F701C01D9241505040E0F7089597
:10345000FB0151915523A9F0BF01DC014D914517A6
:103460004111E1F759F4CD010190002049F04D914F
:1034700040154111C9F3FB014111EFCF81E090E00C
:10348000019708956627772768C0FC018827992748
:10349000E89421912032E9F3293010F02E30C8F35E
:1034A0002B3239F02D3231F4689403C04ED0820FA4
:1034B000911D219120532A30C8F31EF490958195D7
:1034C0009F4F08951F93FC0199278827BC01E8941A
:1034D00011911032E9F3193010F01E30C8F31B328D
:1034E00049F01D3241F4689405C01AD0610F711D76
:1034F000811D911D119110531A30B8F33EF490952F
:103500008095709561957F4F8F4F9F4F1F910895C4
:10351000911189C1803219F089508550D0F70895F2
:10352000592F482F372F262F660F771F881F991F77
:10353000660F771F881F991F620F731F841F951FC7
:10354000660F771F881F991F08957AE0979F902D27
:10355000879F802D910D112408956F927F928F92F5
:103560009F92AF92BF92CF92DF92EF92FF920F9312
:103570001F93CF93DF93EC017B016115710519F067
:10358000DB018D939C938E010F5F1F4F7880872DF9
:1035900090E0BEDF892B11F0E801F5CFBDE27B1290
:1035A00005C00F5F1F4F7980C1E008C0EBE27E12BB
:1035B00004C08E010E5F1F4F7980C0E06801F1E00A
:1035C000CF1AD10843E050E068E472E0C6012ED182
:1035D000892BE9F4680122E0C20ED11C45E050E0DD
:1035E00063E472E0C60122D1892B21F4680187E0EF
:1035F000C80ED11CE114F10419F0D701CD92DC9270
:10360000C111F9C060E070E080E89FE7FDC043E0D1
:1036100050E060E472E0C60109D1892B51F4E11455
:10362000F10409F4EDC00E5F1F4FF7011183008311
:10363000E7C0680160E070E0CB0100E010E0F60157
:10364000D0EDD70DDA3050F52C2F2260622E2C2FC2
:103650002870C2FF05C0211127C00F5F1F4F24C073
:10366000222311F001501109A5E0B0E09B01AC014B
:103670005BD24B015C01880C991CAA1CBB1CC501C8
:10368000B4016D0F711D811D911D6839A9E97A077B
:103690008A07A9E19A0740F0C66005C0DE3F51F4F1
:1036A000C3FD44C0C8606C2EBFEFCB1ADB0A70802C
:1036B000C62DC5CF2D2F2F7D2531C1F540814D322F
:1036C00011F4C06106C04B3221F0319621E030E0A8
:1036D00006C03296D60111964C9122E030E0A0ED62
:1036E000A40FAA3018F0E21BF30B20C040E050E01A
:1036F0004038BCE05B075CF49A01220F331F220FB5
:10370000331F420F531F440F551F4A0F511D31964F
:10371000DF0111972C91A0EDA20FAA3048F3C4FF4E
:1037200003C0519541955109040F151FC1FF07C0F2
:10373000E114F10421F03197D701ED93FC9392D07D
:10374000C370C33019F06B017C0106C06B017C01B2
:10375000F7FAF094F7F8F09420E030E0A901C701FF
:10376000B6017CD0882309F443C017FF06C0119529
:1037700001951109CFE5D2E002C0C7E7D2E05E01B2
:10378000B8E1AB1AB1084601BE2DAF2D90E2E92E8B
:10379000F12C0E151F057CF0FE0125913591459108
:1037A0005491B4018B2F9A2FBED04B01B82FA92F63
:1037B0000E191F09EECF2497F594E794CA15DB057F
:1037C00041F76401EB2EFA2E8E2D880F8F2D881F66
:1037D0008F3F41F020E030E0A901C701B6013ED0A3
:1037E000811106C082E290E090936E0780936D078E
:1037F000C701B60109C060E070E080E89FEF04C037
:1038000060E070E080EC9FE7DF91CF911F910F9116
:10381000FF90EF90DF90CF90BF90AF909F908F90F0
:103820007F906F900895992788270895FB01DC0108
:103830004150504088F08D9181341CF08B350CF450
:10384000805E659161341CF06B350CF4605E861B04
:10385000611171F3990B0895881BFCCF40D008F4D7
:1038600081E00895E89409C097FB3EF49095809517
:10387000709561957F4F8F4F9F4F9923A9F0F92F36
:1038800096E9BB279395F695879577956795B795B4
:10389000F111F8CFFAF4BB0F11F460FF1BC06F5F9A
:1038A0007F4F8F4F9F4F16C0882311F096E911C0AC
:1038B000772321F09EE8872F762F05C0662371F0CD
:1038C00096E8862F70E060E02AF09A95660F771FE1
:1038D000881FDAF7880F9695879597F90895990FBD
:1038E0000008550FAA0BE0E8FEEF16161706E807CA
:1038F000F907C0F012161306E407F50798F0621BEB
:10390000730B840B950B39F40A2661F0232B242BBF
:10391000252B21F408950A2609F4A140A6958FEFDE
:10392000811D811D08950BD078C069D028F06ED01C
:1039300018F0952309F05AC05FC01124A2C07ED0B0
:10394000A0F3959FD1F3950F50E0551F629FF001B2
:10395000729FBB27F00DB11D639FAA27F00DB11D0B
:10396000AA1F649F6627B00DA11D661F829F222794
:10397000B00DA11D621F739FB00DA11D621F839F1B
:10398000A00D611D221F749F3327A00D611D231FF1
:10399000849F600D211D822F762F6A2F11249F573F
:1039A00050408AF0E1F088234AF0EE0FFF1FBB1F62
:1039B000661F771F881F91505040A9F79E3F510501
:1039C00070F014C05EC05F3FECF3983EDCF3869568
:1039D00077956795B795F795E7959F5FC1F7FE2BAC
:1039E000880F911D9695879597F9089597F99F6788
:1039F00080E870E060E008959FEF80EC0895002477
:103A00000A941616170618060906089500240A9443
:103A100012161306140605060895092E0394000CC9
:103A200011F4882352F0BB0F40F4BF2B11F460FF58
:103A300004C06F5F7F4F8F4F9F4F089557FD905881
:103A4000440F551F59F05F3F71F04795880F97FB62
:103A5000991F61F09F3F79F087950895121613061C
:103A60001406551FF2CF4695F1DF08C0161617064B
:103A70001806991FF1CF8695710561050894089580
:103A8000E894BB2766277727CB0197F90895DB01D8
:103A90008F939F9349D0BF91AF91A29F800D911DAD
:103AA000A39F900DB29F900D11240895A1E21A2EAC
:103AB000AA1BBB1BFD010DC0AA1FBB1FEE1FFF1FD2
:103AC000A217B307E407F50720F0A21BB30BE40B22
:103AD000F50B661F771F881F991F1A9469F7609569
:103AE0007095809590959B01AC01BD01CF01089523
:103AF000052E97FB16F400940FD057FD05D0D6DFA6
:103B000007FC02D046F408C05095409530952195A9
:103B10003F4F4F4F5F4F08959095809570956195F9
:103B20007F4F8F4F9F4F089509D0A59F900DB49F51
:103B3000900DA49F800D911D11240895A29FB001A6
:103B4000B39FC001A39F700D811D1124911DB29FD1
:0E3B5000700D811D1124911D0895F894FFCF72
:103B5E00A4702D42333396C2010000000000000015
:103B6E005F0571012005FE041205A505564D445052
:103B7E00565F317C315F564D4450560D0A004D490B
:103B8E0054205472616E7341742056656869636C7B
:103B9E006520446562756767696E670024504D54F1
:103BAE004B3331342C302C312C302C312C302C30FA
:103BBE002C302C302C302C302C302C302C302C3017
:103BCE002C302C302C302C302C302A323800245013
:103BDE004D544B3232302C313030302A3146005376
:103BEE00657475702031204C6F633A20007C002C78
:103BFE0020000A53657475702032204C6F633A2092
:103C0E00000A4F75746572204C6F6F702031204C16
:103C1E006F633A20002447504747410024475052D3
:103C2E004D43000A4F75746572204C6F6F702032D1
:103C3E00204C6F633A20000A4C6F6F702032204C7C
:103C4E006F633A20000A4E61762031204C6F633A42
:103C5E0020000A0A4E617661676174696F6E2044B6
:103C6E006961676E6F737469630054696D653A209C
:103C7E0000446174653A20002F3230004669783A6C
:103C8E002000207175616C6974793A20004C6F6365
:103C9E006174696F6E3A2000537065656420286BFD
:103CAE006E6F7473293A2000416E676C653A20007E
:103CBE00416C7469747564653A2000536174656C67
:103CCE006C697465733A2000576179706F696E7410
:103CDE003A20000A4E61762032204C6F633A200063
:103CEE000A4C6F6F702033204C6F633A200057617F
:103CFE0079706F696E74204C6F633A20000A436FBF
:103D0E00757273653A20000A4C6F6F702034204C28
:103D1E006F633A20000A4C6F6F702035204C6F6332
:103D2E003A20006E616E00696E66006F7666005F07
:103D3E00564D44504500564D4450435F005F564D1E
:103D4E004450430D0A00564D4450455F003A323AF6
:023D5E00000063
:00000001FF
