:100000003EC100006CC100006AC1000068C1000070
:1000100066C1000064C1000062C1000060C1000050
:100020005EC1000059C5000057C5000055C500005D
:1000300056C1000054C1000052C1000050C1000070
:100040004EC100001CC500004AC1000048C10000AC
:1000500046C100004BC5000042C100003FC4000083
:100060003EC10000CEC30000A3C3000038C10000A1
:1000700036C1000034C1000032C1000030C10000B0
:10008000D1C400002CC100002AC1000028C100001A
:1000900026C1000024C1000022C1000020C10000D0
:1000A0001EC100001CC1000090C4000018C1000067
:1000B00016C1000014C1000012C1000059C40000A4
:1000C0000EC100000CC100000AC1000008C1000000
:1000D00006C1000004C1000042C3000017C30000B5
:1000E000FEC00000B302B602A502A902AD02ED02F5
:1000F000BA02BE02C402C802CC02D202D602DA029E
:10010000ED02E002E402E802084AD73B3BCE016E72
:1001100084BCBFFDC12F3D6C74319ABD56833DDA5E
:100120003D00C77F11BED9E4BB4C3E916BAAAABE6D
:10013000000000803F05A84CCDB2D44EB93836A996
:10014000020C50B9918688083CA6AAAA2ABE0000D3
:1001500000803F0000002200250028002B002E0018
:100160003100340002010000050108010B01050502
:100170000505070508080808020202020A0A08081D
:10018000040404040101010101010101030303034B
:1001900003030303040707070C0C0C0C0C0C0C0CDA
:1001A0000202020206060606060606060B0B0B0BEB
:1001B0000B0B0B0B01021020200808102040102010
:1001C000408002010201080402010102040810201B
:1001D0004080804020100804020180040201804019
:1001E0002010080402010804020101020408102082
:1001F0004080010204081020408000000A0B020920
:100200000C0D0E08070304010000000000000000B0
:1002100000000000000000000000000000000000DE
:10022000000000000000121110000000000000009B
:1002300000000000000000000000000000000000BE
:100240004E414E494E495459494E46CDCCCC3D0ABB
:10025000D7233C17B7D13877CC2B329595E6241F9E
:10026000B14F0A000020410000C84200401C462057
:10027000BCBE4CCA1B0E5AAEC59D74001B11112486
:100280001FBECFEFD1E2DEBFCDBF00E00CBF13E059
:10029000A0E0B2E0E0EDF2E300E00BBF02C00790A7
:1002A0000D92A435B107D9F726E0A4E5B3E001C06B
:1002B0001D92AD37B207E1F711E0CFE3D1E000E0E6
:1002C00006C021970109802FFE010E94FA11CE334A
:1002D000D10780E00807A9F769D60C94661990CE7B
:1002E000FC01A089B1898C91A689B78982FD0FC0D4
:1002F0009C91818D8F5F8F73228D821749F0218DA4
:10030000DF01A20FB11D5D969C93818F08958C91A2
:100310000895FC01918D828D981761F0828DDF0127
:10032000A80FB11D5D968C91928D9F5F9F73928FE8
:1003300090E008958FEF9FEF0895FC01918D828DDD
:10034000981731F0828DE80FF11D858D90E00895AA
:100350008FEF9FEF0895FC01918D228D892F90E002
:10036000805C9F4F821B91098F739927089589E8BC
:1003700095E0F1DF21E0892B09F420E0822F089538
:1003800086EF93E0E8DF21E0892B09F420E0822F5B
:100390000895FC01848DDF01A80FB11DA35ABF4F42
:1003A0002C91848D90E001968F739927848FA68974
:1003B000B7892C93A089B1898C9180648C93938D9B
:1003C000848D981306C00288F389E02D80818F7D8B
:1003D00080830895EF92FF920F931F93CF93DF9343
:1003E000EC0181E0888F9B8D8C8D981305C0E88986
:1003F000F989808185FD23C0F62E0B8D10E00F5FFB
:100400001F4F0F731127E02E8C8DE8120BC00FB613
:1004100007FCFACFE889F989808185FFF5CFCE0105
:10042000B8DFF2CF8B8DFE01E80FF11DE35AFF4FCD
:10043000F0820B8FEA89FB898081806207C0EE8998
:10044000FF896083E889F98980818064808381E005
:1004500090E0DF91CF911F910F91FF90EF90089561
:10046000CF93DF93EC01888D8823C1F0EA89FB8963
:10047000808185FD05C0A889B9898C9186FD0EC053
:100480000FB607FCF5CF808185FFF2CFA889B98927
:100490008C9185FFEDCFCE017CDFE8CFDF91CF914E
:1004A000089580E090E0892B19F06ADF811120C067
:1004B00080E090E0892B41F080E090E0892B21F0F2
:1004C0000E940000811117C080E090E0892B41F06C
:1004D00080E090E0892B21F00E94000081110EC085
:1004E00080E090E0892B79F042DF81110AC0089505
:1004F0000E940000DDCF0E940000E6CF0E940000B5
:10050000EFCF0C9400000895362F90E0FC01E650E8
:10051000FE4F4491FC01EC54FE4F2491FC01E25942
:10052000FE4F9491992309F46BC0442309F455C0FC
:1005300050E0FA013197E231F10508F04EC088270A
:10054000EE58FF4F8F4F0C94FA11809180008F77F7
:1005500007C0809180008F7D03C080918000877FDD
:10056000809380003AC084B58F7702C084B58F7DB8
:1005700084BD33C08091B0008F7703C08091B000FC
:100580008F7D8093B00029C0809190008F7707C045
:10059000809190008F7D03C080919000877F809331
:1005A00090001BC08091A0008F7707C08091A000B1
:1005B0008F7D03C08091A000877F8093A0000DC035
:1005C000809120018F7707C0809120018F7D03C02B
:1005D00080912001877F80932001E92FF0E0EE0FCA
:1005E000FF1FEC5AFE4FA591B4918FB7F894EC9190
:1005F000311103C020952E2301C02E2B2C938FBFC9
:1006000008953FB7F8948091F2039091F303A0917D
:10061000F403B091F50326B5A89B05C02F3F19F050
:100620000196A11DB11D3FBFBA2FA92F982F882772
:10063000820F911DA11DB11DBC01CD0142E0660FCD
:10064000771F881F991F4A95D1F70895CF93DF939D
:10065000DB01EA01FC01E751FC4F208127FF04C0C8
:1006600011961C921E920DC040815CE0589F900133
:10067000599F300D1124240F311D47FD3A9537FD48
:10068000208120812F5F20834CE0489F9001499F6B
:10069000300D11248081A901480F511D87FD5A9505
:1006A00057FF1EC080818C30DCF44D915C918081BD
:1006B000B901680F711D87FD7A95CB01DB01AA0F87
:1006C000BB1F8A0F9B1FDC01A75ABC4F11968D914F
:1006D0009C911297840F951F99838883808111C004
:1006E0008D919C911197049680349C4918F480E474
:1006F0009CE903C08D919C910496998388838FEF28
:100700008083DF91CF9108950E94D2151F920F929E
:100710000FB60F9211240BB60F922F933F934F9366
:100720005F936F937F938F939F93AF93BF93EF9359
:10073000FF9389E895E02DDEFF91EF91BF91AF9196
:100740009F918F917F916F915F914F913F912F91E9
:100750000F900BBE0F900FBE0F901F9018951F9219
:100760000F920FB60F9211240BB60F922F933F9357
:100770004F935F936F937F938F939F93AF93BF93A9
:10078000EF93FF9389E895E0ABDDFF91EF91BF9187
:10079000AF919F918F917F916F915F914F913F9119
:1007A0002F910F900BBE0F900FBE0F901F901895BA
:1007B0001F920F920FB60F9211240BB60F922F9328
:1007C0003F934F935F936F937F938F939F93AF93D9
:1007D000BF93EF93FF9386EF93E0DBDDFF91EF9103
:1007E000BF91AF919F918F917F916F915F914F9149
:1007F0003F912F910F900BBE0F900FBE0F901F9047
:1008000018951F920F920FB60F9211240BB60F92EC
:100810002F933F934F935F936F937F938F939F9308
:10082000AF93BF93EF93FF9386EF93E059DDFF9172
:10083000EF91BF91AF919F918F917F916F915F9158
:100840004F913F912F910F900BBE0F900FBE0F90C5
:100850001F9018958F929F92AF92BF92CF92DF9286
:10086000EF92FF926B017C01CCDE4B015C01C11465
:10087000D104E104F104E9F0C4DEDC01CB01881904
:100880009909AA09BB09883E9340A105B10578F3EF
:1008900021E0C21AD108E108F10888EE880E83E051
:1008A000981EA11CB11CC114D104E104F10421F76C
:1008B000DECFFF90EF90DF90CF90BF90AF909F90F2
:1008C0008F9008952FB7F8946091EE037091EF0325
:1008D0008091F0039091F1032FBF08951F920F9222
:1008E0000FB60F9211242F933F938F939F93AF9343
:1008F000BF938091EE039091EF03A091F003B0912C
:10090000F1033091ED0323E0230F2D3720F40196FE
:10091000A11DB11D05C026E8230F0296A11DB11D22
:100920002093ED038093EE039093EF03A093F003E5
:10093000B093F1038091F2039091F303A091F4033B
:10094000B091F5030196A11DB11D8093F203909320
:10095000F303A093F403B093F503BF91AF919F917C
:100960008F913F912F910F900FBE0F901F90189570
:100970001F920F920FB60F9211240BB60F922F9366
:100980003F934F935F936F937F938F939F93AF9317
:10099000BF93EF93FF9348E251E064E271E080E09F
:1009A00090E054DEFF91EF91BF91AF919F918F91B5
:1009B0007F916F915F914F913F912F910F900BBE5F
:1009C0000F900FBE0F901F9018951F920F920FB6A9
:1009D0000F9211240BB60F922F933F934F935F9377
:1009E0006F937F938F939F93AF93BF93EF93FF93F7
:1009F00048EA50E064EA70E083E090E027DEFF918F
:100A0000EF91BF91AF919F918F917F916F915F9186
:100A10004F913F912F910F900BBE0F900FBE0F90F3
:100A20001F9018951F920F920FB60F9211240BB6BC
:100A30000F922F933F934F935F936F937F938F9377
:100A40009F93AF93BF93EF93FF9348E950E064E91E
:100A500070E082E090E0FADDFF91EF91BF91AF91FD
:100A60009F918F917F916F915F914F913F912F91C6
:100A70000F900BBE0F900FBE0F901F9018951F92F6
:100A80000F920FB60F9211240BB60F922F933F9334
:100A90004F935F936F937F938F939F93AF93BF9386
:100AA000EF93FF9348E850E064E870E081E090E065
:100AB000CDDDFF91EF91BF91AF919F918F917F918C
:100AC0006F915F914F913F912F910F900BBE0F90BF
:100AD0000FBE0F901F9018951F920F920FB60F9296
:100AE00011240F900FBE0F901F9018951F920F9218
:100AF0000FB60F9211240BB60F922F933F934F9383
:100B00005F936F937F938F939F93AF93BF93EF9375
:100B1000FF9380917006811158C080917106909169
:100B20007206DC01ED91FC910480F581E02D1995B0
:100B3000892B09F44AC08091710690917206DC01FC
:100B4000ED91FC910680F781E02D19958A3049F5E9
:100B500090918705E0918505F0918605E90FF11DDB
:100B600010822091850530918605B5E02D303B0738
:100B700039F443E954E0509386054093850508C055
:100B80002DE035E0309386052093850523E934E098
:100B900030930C0520930B051092870591E09093FC
:100BA0008805E0918505F09186059091870521E003
:100BB000290F20938705E90FF11D80838091870518
:100BC000883718F087E780938705FF91EF91BF91F1
:100BD000AF919F918F917F916F915F914F913F91D5
:100BE0002F910F900BBE0F900FBE0F901F90189576
:100BF00060913A0670913B0680913C0690913D06CB
:100C00000E94F91720915F06273509F4905820E8D3
:100C100036E948E15BE40C94E012089560913606F1
:100C20007091370680913806909139060E94F91725
:100C300020915E06233509F4905820E836E948E112
:100C40005BE40C94E0120895CF92DF92EF92FF9252
:100C50000F931F93CF93DF936C017A018B01C0E058
:100C6000D0E0CE15DF0589F0D8016D918D01D60158
:100C7000ED91FC910190F081E02DC6011995892B31
:100C800011F47E0102C02196ECCFC701DF91CF9114
:100C90001F910F91FF90EF90DF90CF900895E0911A
:100CA000F603F091F7030190F081E02D682F86EFB5
:100CB00093E019946115710579F0FB010190002012
:100CC000E9F73197AF01461B570BDC01ED91FC9121
:100CD0000280F381E02D199480E090E008958F92D6
:100CE0009F92AF92BF920F931F93CF93DF93CDB795
:100CF000DEB7A1970FB6F894DEBF0FBECDBF19A225
:100D0000423008F44AE08E010F5D1F4F842E912C73
:100D1000A12CB12CA50194010E943519E62FB9012F
:100D2000CA0101501109EA3014F4E05D01C0E95C28
:100D3000D801EC93232B242B252B61F7B80186EFE8
:100D400093E0B8DFA1960FB6F894DEBF0FBECDBF1B
:100D5000DF91CF911F910F91BF90AF909F908F9097
:100D60000895CF92DF92EF92FF92CF93DF936C01C1
:100D7000990FEE08FF08F7FE10C08DE290DFEC013E
:100D800066277727CB016C197D098E099F094AE0F8
:100D9000A6DF7C01EC0EFD1E05C04AE0C701B601CE
:100DA0009EDF7C0160EB72E086EF93E083DF8E0DC7
:100DB0009F1DDF91CF91FF90EF90DF90CF9008952E
:100DC000BC0186EF93E076CF4F925F926F927F9255
:100DD0008F929F92AF92BF92CF92DF92EF92FF924B
:100DE0006B017C01B42E9B01AC010E948914882305
:100DF00019F067E473E027C026013701E89477F81B
:100E00002FEF3FEF4FE75FE7C301B2010E94891464
:100E100081110DC02FEF3FEF4FE75FE7C301B20134
:100E20000E94F31718161CF46BE473E00CC02FEF4C
:100E30003FEF4FE75FE4C701B6010E943314181675
:100E40008CF46FE473E086EF93E0FF90EF90DF9017
:100E5000CF90BF90AF909F908F907F906F905F905A
:100E60004F9028CF2FEF3FEF4FE75FECC701B60160
:100E70000E94F31787FDE5CF20E030E0A901C7010C
:100E8000B6010E94F31787FF08C08DE208DF4C010E
:100E9000F7FAF094F7F8F09402C0812C912CA12C71
:100EA00060E070E080E09FE3AB1441F020E030E0D0
:100EB00040E251E40E94E012A394F6CF9B01AC0102
:100EC000C701B6010E9417122B013C010E944D136D
:100ED0006B017C010E94F7179B01AC01C301B201B9
:100EE0000E9416122B013C014AE0C701B601F7DE51
:100EF0007C01E80CF91CBB2021F08EE2D0DEE80E6C
:100F0000F91EDB2CDD2019F120E030E040E251E455
:100F1000C301B2010E9458182B013C010E944D13DD
:100F20004B01A12CB12C4AE0C501B401D8DEE80E7A
:100F3000F91EC501B4010E94F7179B01AC01C30162
:100F4000B2010E9416122B013C01DA94DBCFC701DB
:100F5000FF90EF90DF90CF90BF90AF909F908F90D9
:100F60007F906F905F904F900895CF93DF9342E012
:100F70002BDFEC0160EB72E086EF93E09BDE8C0FE1
:100F80009D1FDF91CF9108950F931F93CF93DF9310
:100F9000EC0190DE8C0160EB72E0CE018BDE800F05
:100FA000911FDF91CF911F910F910895CF93DF9300
:100FB000CDB7DEB76A970FB6F894DEBF0FBECDBFD0
:100FC000789484B5826084BD84B5816084BD85B524
:100FD000826085BD85B5816085BD80916E00816030
:100FE00080936E00109281008091810082608093D6
:100FF00081008091810081608093810080918000D8
:101000008160809380008091B10084608093B10002
:101010008091B00081608093B000809191008260E7
:1010200080939100809191008160809391008091E4
:1010300090008160809390008091A10082608093F5
:10104000A1008091A10081608093A1008091A00007
:1010500081608093A00080912101826080932101B2
:101060008091210181608093210180912001816024
:101070008093200180917A00846080937A0080912F
:101080007A00826080937A0080917A0081608093F8
:101090007A0080917A00806880937A001092C10073
:1010A000E0910604F091070432E0E32EE082E09143
:1010B0000204F09103041082E0910404F09105040D
:1010C00080E1808310920E04E0910A04F0910B04F9
:1010D00046E0F42EF082E0910804F091090480814A
:1010E00080618083E0910804F09109048081886028
:1010F0008083E0910804F0910904808180688083F6
:10110000E0910804F091090480818F7D808362E280
:1011100072E086EF93E038DF88E090E00E94A5144B
:101120008C0180E092E0D80111969C938E9381E02F
:1011300090E013969C938E93129715961C921E9294
:1011400014978AE590E017969C938E93169785E600
:1011500092E707DEE0917106F0917206A089B189ED
:10116000EC92A485B5851C92A685B7858FEC8C93EF
:10117000108EA489B589FC92A289B3898C91806173
:101180008C93A289B3898C9188608C93A289B3894E
:101190008C9180688C930288F389E02D80818F7D0B
:1011A00080836AE070E080E090E054DB60E472E00D
:1011B0008091710690917206E7DE62E772E080919D
:1011C000710690917206E0DE68EE73E080E090E0D8
:1011D00041DB8FEA87BD80916E00826080936E0054
:1011E0001093550300935403E0915403F091550379
:1011F000FC87EB8780918805882309F42BC5109222
:10120000880500910B0510910C05F8010190002054
:10121000E9F731979F01201B310BA9014450510977
:10122000F801E40FF51F80818A32E1F5200F311FAC
:10123000F90133978081803354F08A3314F480535A
:1012400007C09FEB980F963010F4875301C080E0E1
:10125000F0E18F9FC0011124F901329720812033E2
:1012600054F02A3314F4205307C03FEB320F3630CA
:1012700010F4275301C020E0820F911D62E0262F59
:1012800030E02417350758F4F801E20FF31F2081EE
:10129000022E000C330B822793276F5FF0CF892B30
:1012A00009F0D8C463E872E0C8010E94F015892BE8
:1012B00009F46CC26CE270E0C8010E94D6158C0182
:1012C0000F5F1F4FC8010E940A166B017C010E942C
:1012D0004D134B015C0120E137E240E050E00E94F9
:1012E00035192093260624E630E040E050E00E94C5
:1012F000351920932706C501B40124E630E040E00B
:1013000050E00E9435196093280620E030E040E864
:101310005FE3C701B6010E94801320E030E04AE796
:1013200054E40E9458180E944D1370932D06609348
:101330002C066CE270E0C8010E94D6157C018C017D
:101340000F5F1F4FDC0111968C918C3209F4A7C0FE
:1013500042E050E0B801CE0101960E94E1151B82E7
:10136000CE0101960E942A169B01AC0160E876E945
:1013700088E990E00E94D8114B015C01B7016D5FD4
:101380007F4F42E050E0CE0101960E94E1150B5FD5
:101390001F4F44E050E0B801CE0103960E94E115D2
:1013A0001F82CE0101960E942A169B01AC01A2E386
:1013B000B0E00E942B1923E030E040E050E00E94B2
:1013C0000F1969017A01D501C401820F931FA41F6F
:1013D000B51F8093360690933706A0933806B093D6
:1013E0003906C501B40120EA36E841E050E00E9428
:1013F0000F19CA01B9010E94F9174B015C01C7011D
:10140000B6010E94F9172CE933E549EC56E30E9436
:1014100058189B01AC01C501B4010E9417124B0181
:101420005C0160932E0670932F0680933006909394
:10143000310620E030E048EC52E40E94E0120E94C5
:1014400048136B017C01B4E6BC9DB001BD9D700DDD
:101450001124072E000C880B990B0E94F9179B0191
:10146000AC01C501B401E2D720E030E040E752E42E
:101470000E94E0124B015C01B601DD0C880B990B58
:101480000E94F9179B01AC01C501B401D0D760934C
:101490003E0670933F0680934006909341066CE2AF
:1014A00070E0C8010E94D615FC019C012F5F3F4FE0
:1014B00081818C3201F1833589F480913E069091CF
:1014C0003F06A0914006B0914106B05880933E0679
:1014D00090933F06A0934006B093410691819E34BD
:1014E00011F0933519F490935E0605C09C3209F013
:1014F000B1C310925E066CE270E0C9010E94D6157D
:101500007C018C010F5F1F4FFC0181818C3209F43B
:10151000A3C043E050E0B801CE0101960E94E1155E
:101520001C82CE0101960E942A169B01AC0160E844
:1015300076E988E990E03CD74B015C01B7016C5F2C
:101540007F4F42E050E0CE0101960E94E1150A5F14
:101550001F4F44E050E0B801CE0103960E94E11510
:101560001F82CE0101960E942A169B01AC01A2E3C4
:10157000B0E00E942B1923E030E040E050E00E94F0
:101580000F1969017A01D501C401820F931FA41FAD
:10159000B51F80933A0690933B06A0933C06B09308
:1015A0003D06C501B40120EA36E841E050E00E9462
:1015B0000F19CA01B9010E94F9174B015C01C7015B
:1015C000B6010E94F9172CE933E549EC56E30E9475
:1015D00058189B01AC01C501B40129D74B015C012E
:1015E00060933206709333068093340690933506E9
:1015F00020E030E048EC52E4E3D70E9448136B014E
:101600007C01F4E6FC9DB001FD9D700D1124072EB8
:10161000000C880B990B0E94F9179B01AC01C501C6
:10162000B40104D720E030E040E752E4C9D74B01D1
:101630005C01B601DD0C880B990B0E94F9179B0128
:10164000AC01C501B401F3D6609342067093430622
:1016500080934406909345066CE270E0C8010E94B6
:10166000D615FC019C012F5F3F4F81818C3201F127
:10167000873589F48091420690914306A0914406F3
:10168000B0914506B0588093420690934306A093CC
:101690004406B09345069181973511F0953419F4BD
:1016A00090935F0605C09C3209F0D4C210925F0689
:1016B0006CE270E0C9010E94D6158C010F5F1F4FCC
:1016C000DC0111968C918C3229F0C8010E940D1614
:1016D000809362066CE270E0C8010E94D6158C010E
:1016E0000F5F1F4FFC0181818C3229F0C8010E94DD
:1016F0000D16809363066CE270E0C8010E94D61557
:101700008C010F5F1F4FDC0111968C918C3259F0C8
:10171000C8010E940A1660935A0670935B06809374
:101720005C0690935D066CE270E0C8010E94D615DD
:101730008C010F5F1F4FFC0181818C3259F0C80171
:101740000E940A1660934A0670934B0680934C06DB
:1017500090934D066CE270E0C8010E94D6156CE2D1
:1017600070E001960E94D615DC0111962C912C3266
:1017700009F470C201960E940A166093460670939F
:101780004706809348069093490664C26AE872E06F
:10179000C8010E94F015892B09F45CC26CE270E06C
:1017A000C8010E94D6158C010F5F1F4FC8010E940F
:1017B0000A166B017C0171D74B015C0120E137E215
:1017C00040E050E00E9435192093260624E630E0E0
:1017D00040E050E00E94351920932706C501B4016E
:1017E00024E630E040E050E00E943519609328067E
:1017F00020E030E040E85FE3C701B60181D720E098
:1018000030E04AE754E40E94581847D770932D06F9
:1018100060932C066CE270E0C8010E94D615FC01B2
:101820002181213421F4F1E0F093610605C02635D1
:1018300009F010C2109261066CE270E001960E94FD
:10184000D6157C018C010F5F1F4FDC0111968C9126
:101850008C3209F4A2C042E050E0B801CE010196FA
:101860000E94E1151B82CE0101960E942A169B015F
:10187000AC0160E876E988E990E09AD54B015C011B
:10188000B7016D5F7F4F42E050E0CE0101960E94AC
:10189000E1150B5F1F4F44E050E0B801CE01039605
:1018A0000E94E1151F82CE0101960E942A169B011B
:1018B000AC01A2E3B0E00E942B1923E030E040E04D
:1018C00050E00E940F1969017A01D501C401820F0D
:1018D000931FA41FB51F8093360690933706A093DD
:1018E0003806B0933906C501B40120EA36E841E074
:1018F00050E00E940F19CA01B9010E94F9174B016B
:101900005C01C701B6010E94F9172CE933E549ECE7
:1019100056E30E9458189B01AC01C501B40187D55C
:101920004B015C0160932E0670932F068093300666
:101930009093310620E030E048EC52E441D6A8D63E
:101940006B017C01B4E6BC9DB001BD9D700D1124FE
:10195000072E000C880B990B0E94F9179B01AC0114
:10196000C501B40163D520E030E040E752E428D659
:101970004B015C01B601DD0C880B990B0E94F91735
:101980009B01AC01C501B40152D560933E06709332
:101990003F0680934006909341066CE270E0C801D8
:1019A0000E94D615FC019C012F5F3F4F81818C3234
:1019B00001F1833589F480913E0690913F06A09114
:1019C0004006B0914106B05880933E0690933F0682
:1019D000A0934006B093410691819E3411F0933557
:1019E00019F490935E0605C09C3209F033C1109241
:1019F0005E066CE270E0C9010E94D6157C018C0184
:101A00000F5F1F4FFC0181818C3209F4A2C043E0BB
:101A100050E0B801CE0101960E94E1151C82CE0172
:101A200001960E942A169B01AC0160E876E988E9DC
:101A300090E0BED44B015C01B7016C5F7F4F42E088
:101A400050E0CE0101960E94E1150A5F1F4F44E06D
:101A500050E0B801CE0103960E94E1151F82CE012D
:101A600001960E942A169B01AC01A2E3B0E00E94FD
:101A70002B1923E030E040E050E00E940F1969018B
:101A80007A01D501C401820F931FA41FB51F809353
:101A90003A0690933B06A0933C06B0933D06C501E1
:101AA000B40120EA36E841E050E00E940F19CA0173
:101AB000B9010E94F9174B015C01C701B6010E94F0
:101AC000F9172CE933E549EC56E30E9458189B01BD
:101AD000AC01C501B401ABD44B015C01609332068B
:101AE00070933306809334069093350620E030E0FF
:101AF00048EC52E465D5CCD56B017C01F4E6FC9D45
:101B0000B001FD9D700D1124072E000C880B990B60
:101B10000E94F9179B01AC01C501B40187D420E0F4
:101B200030E040E752E44CD54B015C01B601DD0CDE
:101B3000880B990B0E94F9179B01AC01C501B401F8
:101B400076D4609342067093430680934406909344
:101B500045066CE270E0C8010E94D615FC019C01AC
:101B60002F5F3F4F81818C3201F1873589F480915D
:101B7000420690914306A0914406B0914506B058A4
:101B80008093420690934306A0934406B093450683
:101B90009181973511F0953419F490935F0605C043
:101BA0009C3209F057C010925F066CE270E0C901E8
:101BB000FDD78C010F5F1F4FDC0111968C918C3289
:101BC00059F0C8010E940A1660934E0670934F06A2
:101BD00080935006909351066CE270E0C801E6D7FE
:101BE0008C010F5F1F4FFC0181818C3259F0C801BD
:101BF0000E940A166093520670935306809354060F
:101C0000909355066CE270E0C801D0D7DC011196C4
:101C10002C912C32F9F00196FDD73FD56B017C0158
:101C200020E137E240E050E00E94351920932B0676
:101C300024E630E040E050E00E94351920932A0667
:101C4000C701B60124E630E040E050E00E943519BB
:101C50006093290680916106882309F4D8C0EB853A
:101C6000FC8524803580C10123E0880F991F2A95C7
:101C7000E1F700811181080F191F0E94F8056F8795
:101C8000788B898B9A8B0E940E062BED3FE049E4FE
:101C900050E40E94581820E030E044E353E490D42C
:101CA0002B013C012BED3FE049E450E4D8016D915C
:101CB0007D918D919C910E94581820E030E044E382
:101CC00053E47ED44B015C01A3019201AFD320E029
:101CD00030E040E05FE30E945818D0D56B017C01F2
:101CE000C301B2016AD42B013C01C501B40165D422
:101CF0006B8B7C8B8D8B9E8B2BED3FE049E450E40E
:101D0000F80164817581868197810E94581820E0CE
:101D100030E044E353E454D44B015C012BED3FE04D
:101D200049E450E46F85788989899A890E94581816
:101D300020E030E044E353E443D49B01AC01C5010F
:101D4000B40174D320E030E040E05FE30E94581813
:101D500095D54B015C01A7019601C701B6010E9410
:101D600058186B017C012B893C894D895E89C30120
:101D7000B2010E9458182B013C01A5019401C50134
:101D8000B4010E9458189B01AC01C301B2010E942A
:101D900058189B01AC01C701B60149D36B017C0106
:101DA0009B01AC0160E070E080E89FE33FD370D519
:101DB0009B01AC01C701B6012F8B388F498F5A8F19
:101DC00067D52F89388D498D5A8DA4D39B01AC01DD
:101DD0002ED320E038E147EC55E40E94581820E06B
:101DE00030E040EA50E40E94F31787FF10C0FFEF95
:101DF0002F1A3F0AAB85BC8512968D919C91139743
:101E00002816390624F415963C922E921497C09009
:101E10007306D0907406E0907506F09076060E94E6
:101E200062046C157D058E059F0550F40E946204C6
:101E3000609373067093740680937506909376068C
:101E40000E94620400917306109174062091750639
:101E500030917606DC01CB01801B910BA20BB30BFA
:101E6000813D9740A105B10508F4E1C10E946204DB
:101E7000609373067093740680937506909376064C
:101E8000009154031091550361E972E086EF93E0ED
:101E90007BD889EA92E00E94E0066091260670E015
:101EA00080E090E04AE00E946F068AE30E944F06BD
:101EB0006091270670E080E090E04AE00E946F06A3
:101EC0008AE30E944F066091280670E080E090E06F
:101ED0004AE00E946F068EE20E944F0660912C0637
:101EE00070912D0680E090E04AE00E946F0660EB62
:101EF00072E086EF93E00E945A0683EB92E00E9424
:101F0000E00660912B0670E080E090E04AE00E94DD
:101F10006F068FE20E944F0660912A0670E080E013
:101F200090E04AE00E946F068AEB92E00E94E00691
:101F30006091290670E080E090E04AE00E946F0620
:101F400060EB72E086EF93E00E945A068EEB92E01F
:101F50000E94E0066091610670E080E090E04AE057
:101F60000E946F0684EC92E00E94E0068091620677
:101F700090E00E94B10680916106882309F453C065
:101F80008FEC92E00E94E0060E940E0642E00E9462
:101F9000E40680915E060E944F068AED92E00E9460
:101FA000E0060E94F80542E00E94E40680915F0688
:101FB0000E944F0660EB72E086EF93E00E945A06A3
:101FC0008DED92E00E94E00660914E0670914F0602
:101FD00080915006909151060E94B5078DEE92E0D7
:101FE0000E94E0066091520670915306809154065B
:101FF000909155060E94B50785EF92E00E94E00699
:1020000060914A0670914B0680914C0690914D0666
:102010000E94B50780E093E00E94E006809163068D
:1020200090E00E94B1068DE093E00E94E006D801A6
:1020300014968D919C9115970E94B10600915403BE
:102040001091550380916106811104C0F801F6805A
:102050001781E3C0D801ED91FC9184819581A6811F
:10206000B7818B879C87AD87BE87C080D180E28097
:10207000F3800E94F8052B013C010E940E064B01E3
:102080005C018FE193E00E94E00642E0C501B401EB
:102090000E94E4068AED92E00E94E006C301B201CC
:1020A0000E94B5078EE293E00E94E00642E0C7017D
:1020B000B6010E94E4068AED92E00E94E0066B857C
:1020C0007C858D859E850E94B5072BED3FE049E418
:1020D00050E4C501B401ECD720E030E044E353E420
:1020E0006FD26F87788B898B9A8B2BED3FE049E419
:1020F00050E4C701B601DCD720E030E044E353E40C
:102100005FD24B015C012BED3FE049E450E46B856D
:102110007C858D859E85CCD720E030E044E353E478
:102120004FD26B017C012BED3FE049E450E4C30149
:10213000B201BED720E030E044E353E441D29B013A
:10214000AC01C701B60172D16B017C0197D36B8BD7
:102150007C8B8D8B9E8BC501B4012FD26B877C87C6
:102160008D879E876F85788989899A8926D22B01E8
:102170003C01C501B40182D39B01AC016F85788914
:1021800089899A892F8B388F498F5A8F77D34B0142
:102190005C01C701B60111D26B017C012F89388D1A
:1021A000498D5A8DC301B20183D72B013C012B8588
:1021B0003C854D855E85C501B4017AD7A70196019E
:1021C00077D79B01AC01C301B20130D16B017C0117
:1021D0002B853C854D855E856B897C898D899E89A3
:1021E00067D7A701960196D120E030E044E353E49D
:1021F0005FD72BED3FE049E450E4E2D149D2CB0177
:1022000088599E4F68E671E0E2D0D80116968C930B
:10221000169717969C93F82E192F6DE373E086EFAF
:1022200093E00E94C4078F2D912F0E94B1060E9457
:1022300051020C94F408A9E8B5E013961C921E9282
:10224000129748EE53E060E070E014964D935D9372
:102250006D937C93179786E192E011969C938E93F1
:1022600025E331E01D963C932E931C9724E331E047
:102270001F963C932E931E9720E331E051963C939A
:102280002E93509721E331E053963C932E9352972F
:1022900022E331E055963C932E93549726E331E0A8
:1022A00057963C932E93569759961C9259975A9647
:1022B0001C925A975B961C925B975C961C925C975B
:1022C000E6EFF3E0138212824483558366837783BB
:1022D0009183808385EC90E09587848784EC90E0FF
:1022E0009787868780EC90E0918B808B81EC90E0E3
:1022F000938B828B82EC90E0958B848B86EC90E0C4
:10230000978B868B118E128E138E148E10928805E9
:10231000E6E2F6E010927006109287058DE095E0F7
:10232000909386058093850583E994E090930C054E
:1023300080930B051092630614AE158214821382EB
:1023400012821182108212AE11AE10AE13AE17823D
:10235000168214AA15AA16AA17AA10AA11AA12AAB6
:1023600013AA14A615A616A617A610A611A612A69D
:1023700013A614A215A216A217A210A211A212A2AD
:1023800013A2148615861686178610861186128665
:102390001386B0937206A09371060E946204609344
:1023A000730670937406809375069093760608956D
:1023B000DB018F939F934FD7BF91AF91A29F800D69
:1023C000911DA39F900DB29F900D1124089597FB2E
:1023D000072E16F4009406D077FD08D013D007FC22
:1023E00005D03EF4909581959F4F08957095619525
:1023F0007F4F0895EE0FFF1F881F8BBF0790F69148
:10240000E02D1994AA1BBB1B51E107C0AA1FBB1FDB
:10241000A617B70710F0A61BB70B881F991F5A9570
:10242000A9F780959095BC01CD0108955058BB2720
:10243000AA270ED0BAC6ABD630F0B0D620F031F411
:102440009F3F11F41EF4A0C60EF4E095E7FB96C67C
:10245000E92FBCD680F3BA17620773078407950784
:1024600018F071F49EF5D4C60EF4E0950B2EBA2F39
:10247000A02D0B01B90190010C01CA01A00111248A
:10248000FF27591B99F0593F50F4503E68F11A1636
:10249000F040A22F232F342F4427585FF3CF4695C7
:1024A00037952795A795F0405395C9F77EF41F16E9
:1024B000BA0B620B730B840BBAF09150A1F0FF0FB3
:1024C000BB1F661F771F881FC2F70EC0BA0F621F9F
:1024D000731F841F48F4879577956795B795F7958F
:1024E0009E3F08F0B3CF9395880F08F09927EE0F21
:1024F0009795879508954BD658F080E891E009F4B8
:102500009EEF4CD628F040E851E059F45EEF09C048
:102510003BC67EC6E92FE07859D668F3092E052A16
:10252000C1F3261737074807590738F00E2E07F86A
:10253000E02569F0E025E0640AC0EF6307F8009445
:1025400007FADB01B9019D01DC01CA01AD01EF937E
:1025500046D02BD60AD05F91552331F02BED3FE0CA
:1025600049E450FD49EC63CF0895DF93DD27B92F8F
:10257000BF7740E85FE31616170648075B0710F4BD
:10258000D92F75D19F938F937F936F93BFD1E8E03D
:10259000F1E00BD10AD62F913F914F915F9194D5E5
:1025A000DD2349F09058A2EA2AED3FE049EC5FE3D1
:1025B000D0785D274DDFDF91F8C51DD1E39542C18D
:1025C0000CD0F3C5EBD540F0E2D530F021F45F3FFD
:1025D00019F0D4C551111DC6D7C5F8D598F3992364
:1025E000C9F35523B1F3951B550BBB27AA276217D7
:1025F0007307840738F09F5F5F4F220F331F441F1C
:10260000AA1FA9F333D00E2E3AF0E0E830D0915053
:102610005040E695001CCAF729D0FE2F27D0660F40
:10262000771F881FBB1F261737074807AB07B0E87F
:1026300009F0BB0B802DBF01FF2793585F4F2AF095
:102640009E3F510568F09AC5E4C55F3FECF3983EA4
:10265000DCF3869577956795B795F7959F5FC9F7F2
:10266000880F911D9695879597F90895E1E0660F7B
:10267000771F881FBB1F621773078407BA0720F0F4
:10268000621B730B840BBA0BEE1F88F7E09508955D
:1026900004D06894B111BDC50895A0D588F09F57A6
:1026A00090F0B92F9927B751A0F0D1F0660F771F9E
:1026B000881F991F1AF0BA95C9F712C0B13081F07E
:1026C000A7D5B1E00895A4C5672F782F8827B85FF4
:1026D00039F0B93FCCF3869577956795B395D9F7DF
:1026E0003EF490958095709561957F4F8F4F9F4FE9
:1026F00008954DD518F011F051D538F445C589C568
:10270000E92F64D5B0F35523C9F3E7FB62177307CC
:1027100084079507A8F199F3E92FFF2788232AF06A
:102720003197660F771F881FDAF7952F55274423B7
:1027300032F091505040220F331F441FD2F7BB2775
:10274000E91BF50B621B730B840BB109C1F222F478
:10275000620F731F841FB11D31972AF0660F771F18
:10276000881FBB1FEFCF915050405AF041F0882393
:1027700032F0660F771F881F91505040C1F7939534
:1027800006C08695779567959F5FD9F7F8CF9F3FED
:1027900031F0915020F4879577956795B795880F1C
:1027A000911D9695879597F90895DF93CF931F9381
:1027B0000F93FF92EF92DF927B018C01689405C02A
:1027C000DA2EEF0181D4FE01E894A591259135918F
:1027D00045915591AEF3EF013BDEFE019701A80153
:1027E000DA9479F7DF90EF90FF900F911F91CF91DE
:1027F000DF910895C9C4F2D4E8F3E894E0E0BB2780
:102800009F57F0F02AED3FE049EC06C0EE0FBB0FFA
:10281000661F771F881F28F0B23A62077307840784
:1028200028F0B25A620B730B840BE3959A9572F7FA
:10283000803830F49A95BB0F661F771F881FD2F738
:102840009048A7CFEF93E0FF06C0A2EA2AED3FE051
:1028500049EC5FEBFDDDA9D40F90039401FC905887
:10286000E5E3F1E061C000D408F48FEF08959B0127
:10287000AC0160E070E080E89FE3A2CE9F93BBDFF5
:102880000F9007FCEE5FDECF11F40EF47DC47FCF16
:10289000A5D4D0F39923D9F3CEF39F57550B87FFD7
:1028A0003CD00024A0E640EA9001805856959795C8
:1028B00028F4805C660F771F881F20F026173707E3
:1028C000480730F4621B730B840B202931294A2BF3
:1028D000A69517940794202531254A2758F7660FA7
:1028E000771F881F20F026173707480730F4620B40
:1028F000730B840B200D311D411DA09581F7B9018B
:10290000842F9158880F9695879508959B01AC0167
:10291000CFC3AAD3880B990B089591505040660FEE
:10292000771F881FD2F708959F938F937F936F939C
:10293000FF93EF939B01AC01BBD3EF91FF9135DF88
:102940002F913F914F915F91B3C3CF93DF9382302B
:10295000910510F482E090E0E0917906F0917A061A
:1029600020E030E0C0E0D0E0309711F140815181AB
:1029700048175907C0F04817590761F482819381BD
:10298000209719F09B838A832BC090937A068093BB
:10299000790626C02115310519F04217530718F49E
:1029A0009A01BE01DF01EF010280F381E02DDCCF4F
:1029B0002115310509F1281B390B2430310590F41C
:1029C00012968D919C9113976115710521F0FB0171
:1029D0009383828304C090937A0680937906FD01E5
:1029E000329644C0FD01E20FF31F81939193225070
:1029F00031092D933C933AC02091770630917806A7
:102A0000232B41F420910A0230910B023093780677
:102A10002093770620910802309109022115310593
:102A200041F42DB73EB740910C0250910D02241B8A
:102A3000350BE0917706F0917806E217F307A0F4E2
:102A40002E1B3F0B2817390778F0AC014E5F5F4F04
:102A50002417350748F04E0F5F1F509378064093B8
:102A600077068193919302C0E0E0F0E0CF01DF911F
:102A7000CF9108950F931F93CF93DF93009709F49D
:102A80008CC0FC013297138212820091790610915A
:102A90007A060115110581F420813181820F931F7F
:102AA00020917706309178062817390779F5F09349
:102AB0007806E093770671C0D80140E050E0AE1789
:102AC000BF0750F412962D913C911397AD0121153B
:102AD000310509F1D901F3CF9D01DA013383228356
:102AE00060817181860F971F8217930769F4EC014B
:102AF00028813981260F371F2E5F3F4F3183208376
:102B00008A819B8193838283452B29F4F0937A06F3
:102B1000E093790642C01396FC93EE931297ED0171
:102B2000499159919E01240F351FE217F30771F463
:102B300080819181840F951F029611969C938E93AC
:102B40008281938113969C938E931297E0E0F0E03C
:102B5000D80112968D919C911397009719F0F80166
:102B60008C01F6CF8D919C9198012E5F3F4F820F83
:102B7000931F20917706309178062817390769F45A
:102B8000309729F410927A061092790602C01382C7
:102B900012821093780600937706DF91CF911F91F0
:102BA0000F91089581E090E0F89490C3FC01819129
:102BB000861721F08823D9F7992708953197CF01F7
:102BC0000895FB01DC014150504048F001900D9206
:102BD0000020C9F701C01D9241505040E0F7089510
:102BE000FB0151915523A9F0BF01DC014D9145171F
:102BF0004111E1F759F4CD010190002049F04D91C8
:102C000040154111C9F3FB014111EFCF81E090E084
:102C1000019708956627772760C0FC0188279927C8
:102C2000E89421912032E9F3293010F02E30C8F3D6
:102C30002B3239F02D3231F4689403C046D0820F24
:102C4000911D219120532A30C8F31EF4909581954F
:102C50009F4F08951F93FC0199278827BC01E89492
:102C600011911032E9F3193010F01E30C8F31B3205
:102C700049F01D3241F4689405C012D0610F711DF6
:102C8000811D911D119110531A30B8F33EF49095A7
:102C90008095709561957F4F8F4F9F4F1F9108953D
:102CA000592F482F372F262F660F771F881F991F00
:102CB000660F771F881F991F620F731F841F951F50
:102CC000660F771F881F991F08957AE0979F902DB0
:102CD000879F802D910D112408956F927F928F927E
:102CE0009F92AF92BF92CF92DF92EF92FF920F939B
:102CF0001F93CF93DF93EC017B016115710519F0F0
:102D0000DB018D939C938E010F5F1F4F7880872D81
:102D100090E049D1892B11F0E801F5CFBDE27B129B
:102D200005C00F5F1F4F7980C1E008C0EBE27E1243
:102D300004C08E010E5F1F4F7980C0E06801F1E092
:102D4000CF1AD10843E050E068E472E0C60133D105
:102D5000892BE9F4680122E0C20ED11C45E050E065
:102D600063E472E0C60127D1892B21F4680187E072
:102D7000C80ED11CE114F10419F0D701CD92DC92F8
:102D8000C111F9C060E070E080E89FE7FDC043E05A
:102D900050E060E472E0C6010ED1892B51F4E114D9
:102DA000F10409F4EDC00E5F1F4FF701118300839A
:102DB000E7C0680160E070E0CB0100E010E0F601E0
:102DC000D0EDD70DDA3050F52C2F2260622E2C2F4B
:102DD0002870C2FF05C0211127C00F5F1F4F24C0FC
:102DE000222311F001501109A5E0B0E09B01AC01D4
:102DF00032D24B015C01880C991CAA1CBB1CC5017A
:102E0000B4016D0F711D811D911D6839A9E97A0703
:102E10008A07A9E19A0740F0C66005C0DE3F51F479
:102E2000C3FD44C0C8606C2EBFEFCB1ADB0A7080B4
:102E3000C62DC5CF2D2F2F7D2531C1F540814D32B7
:102E400011F4C06106C04B3221F0319621E030E030
:102E500006C03296D60111964C9122E030E0A0EDEA
:102E6000A40FAA3018F0E21BF30B20C040E050E0A2
:102E70004038BCE05B075CF49A01220F331F220F3D
:102E8000331F420F531F440F551F4A0F511D3196D8
:102E9000DF0111972C91A0EDA20FAA3048F3C4FFD7
:102EA00003C0519541955109040F151FC1FF07C07B
:102EB000E114F10421F03197D701ED93FC9397D001
:102EC000C370C33019F06B017C0106C06B017C013B
:102ED000F7FAF094F7F8F09420E030E0A901C70188
:102EE000B60181D0882309F443C017FF06C01195AD
:102EF00001951109CFE5D2E002C0C7E7D2E05E013B
:102F0000B8E1AB1AB1084601BE2DAF2D90E2E92E13
:102F1000F12C0E151F057CF0FE0125913591459190
:102F20005491B4018B2F9A2FC3D04B01B82FA92FE6
:102F30000E191F09EECF2497F594E794CA15DB0507
:102F400041F76401EB2EFA2E8E2D880F8F2D881FEE
:102F50008F3F41F020E030E0A901C701B60143D026
:102F6000811106C082E290E090937C0680937B06FC
:102F7000C701B60109C060E070E080E89FEF04C0BF
:102F800060E070E080EC9FE7DF91CF911F910F919F
:102F9000FF90EF90DF90CF90BF90AF909F908F9079
:102FA0007F906F9008959111E6C0803219F089509A
:102FB0008550D0F70895FB01DC014150504088F066
:102FC0008D9181341CF08B350CF4805E65916134F9
:102FD0001CF06B350CF4605E861B611171F3990B6C
:102FE0000895881BFCCF40D008F481E00895E89450
:102FF00009C097FB3EF490958095709561957F4F41
:103000008F4F9F4F9923A9F0F92F96E9BB279395EE
:10301000F695879577956795B795F111F8CFFAF4FE
:10302000BB0F11F460FF1BC06F5F7F4F8F4F9F4F2F
:1030300016C0882311F096E911C0772321F09EE88D
:10304000872F762F05C0662371F096E8862F70E0F3
:1030500060E02AF09A95660F771F881FDAF7880FCD
:103060009695879597F90895990F0008550FAA0B23
:10307000E0E8FEEF16161706E807F907C0F012168B
:103080001306E407F50798F0621B730B840B950B8E
:1030900039F40A2661F0232B242B252B21F40895E3
:1030A0000A2609F4A140A6958FEF811D811D089580
:1030B0000BD07BC06CD028F071D018F0952309F0AC
:1030C0005DC062C01124A5C081D0A0F3959FD1F34B
:1030D000950F50E0551F629FF001729FBB27F00DC6
:1030E000B11D639FAA27F00DB11DAA1F649F66271B
:1030F000B00DA11D661F829F2227B00DA11D621F6A
:10310000739FB00DA11D621F839FA00D611D221F23
:10311000749F3327A00D611D231F849F600D211D07
:10312000822F762F6A2F11249F5750408AF0E1F0AA
:1031300088234AF0EE0FFF1FBB1F661F771F881FF3
:1031400091505040A9F79E3F510570F017C061C0E3
:103150005F3FECF3983EDCF3869577956795B795DE
:10316000F795E7959F5FC1F7FE2B880F911D969508
:10317000879597F9089599278827089597F99F6764
:1031800080E870E060E008959FEF80EC08950024EF
:103190000A941616170618060906089500240A94BC
:1031A00012161306140605060895092E0394000C42
:1031B00011F4882352F0BB0F40F4BF2B11F460FFD1
:1031C00004C06F5F7F4F8F4F9F4F089557FD9058FA
:1031D000440F551F59F05F3F71F04795880F97FBDB
:1031E000991F61F09F3F79F0879508951216130695
:1031F0001406551FF2CF4695F1DF08C016161706C4
:103200001806991FF1CF86957105610508940895F8
:10321000E894BB2766277727CB0197F90895052EF9
:1032200097FB16F400940FD057FD05D01ED007FC75
:1032300002D046F408C050954095309521953F4FF7
:103240004F4F5F4F089590958095709561957F4F92
:103250008F4F9F4F08952BD0A59F900DB49F900D39
:10326000A49F800D911D11240895A1E21A2EAA1B7E
:10327000BB1BFD010DC0AA1FBB1FEE1FFF1FA21726
:10328000B307E407F50720F0A21BB30BE40BF50B23
:10329000661F771F881F991F1A9469F760957095AC
:1032A000809590959B01AC01BD01CF010895A29F2F
:1032B000B001B39FC001A39F700D811D1124911D0A
:1032C000B29F700D811D1124911D0895F894FFCFB8
:1032D000A4702D42333396C200007D0680000100A9
:1032E000000000000000EA012406AB0189019D01F5
:1032F00030024D4954205472616E734174205665FA
:103300006869636C6520446562756767696E67000C
:1033100024504D544B3331342C302C312C302C3143
:103320002C302C302C302C302C302C302C302C30BD
:103330002C302C302C302C302C302C302C302A32AD
:10334000380024504D544B3232302C313030302A3A
:1033500031460024475047474100244750524D43CF
:10336000000A0A4E617669676174696F6E2044696C
:1033700061676E6F737469630054696D653A20000C
:103380000D0A00446174653A20002F32300046690E
:10339000783A2000207175616C6974793A20004C8C
:1033A0006F636174696F6E3A20002C200053706562
:1033B000656420286B6E6F7473293A2000416E6734
:1033C0006C653A2000416C7469747564653A20003C
:1033D000536174656C6C697465733A200057617948
:1033E000706F696E74204E756D6265723A20000AC6
:1033F00043757272656E74204C6F633A200057619A
:1034000079706F696E74204C6F633A20000A436FC5
:10341000757273653A20006E616E00696E66006FAA
:0434200076660000CC
:00000001FF
